:020000040000fa
:080000000001040000000000f3
:020000040000fa
:100008007002000070020000700200007002000020
:100018007002000070020000700200007002000010
:10002800700200007002000070020000e61b000071
:1000380070020000700200007002000070020000f0
:10004800700200009a0100007002000070020000b7
:1000580070020000700200007002000070020000d0
:1000680070020000700200007002000070020000c0
:1000780070020000700200007002000070020000b0
:1000880070020000700200007002000070020000a0
:100098007002000070020000700200007002000090
:1000a8007002000070020000700200007002000080
:1000b8007002000070020000700200007002000070
:1000c800421c000070020000700200007002000074
:1000d8007002000070020000700200007002000050
:1000e8007002000070020000700200007002000040
:0800f80070020000700200001c
:020000040000fa
:10010800700200007002000070020000700200001f
:10011800700200007002000070020000700200000f
:10012800700200007002000070020000e61b000070
:1001380070020000700200007002000070020000ef
:10014800700200009a0100007002000070020000b6
:1001580070020000700200007002000070020000cf
:1001680070020000700200007002000070020000bf
:1001780070020000700200007002000070020000af
:10018800700200007002000070020000700200009f
:10019800700200007002000070020000700200008f
:1001a800700200007002000070020000700200007f
:1001b800700200007002000070020000700200006f
:1001c800421c000070020000700200007002000073
:1001d800700200007002000070020000700200004f
:1001e800700200007002000070020000700200003f
:0801f80070020000700200001b
:020000040000fa
:100200000f9420000eff20000e0188000000000067
:10021000000020000000e000020032000001200089
:10022000200288000c000700208721000100200028
:1002300011000700000020000000e0000200320072
:100240000000020000000000181b02000000000077
:100250000040da000000fe004440a900e000200059
:100260000000e0000300320000002000a001880030
:100270004440a8000000060091018800800078003a
:100280000000eb0015003700e280400032a0b4000f
:100290009101ba00e280400032a0b4009102ba009d
:1002a000e280400032a0b4000002eb00472bde00e9
:1002b000f507b200602ce10004003a000059eb00a1
:1002c0008301e900fdff3e00040037006128e100e2
:1002d000010032000082eb00040007001101ba00a7
:1002e0000200e000e8ff3a00000006003159ba00c1
:1002f0008301e9000c0032002159ba008301e900b2
:10030000080032000400e00003003a00e2804000f0
:1003100032a0b400f5ff370011d9ba008301e9001b
:10032000faff3a008100e800e180400032a0b4000a
:10033000000006003600f800809fbe00829fbe00cd
:10034000849fbe00869fbe000000fa008520a900a1
:1003500094108000044278008000eb000440780094
:100360005f0c07000080fa004f03be004f02be0082
:100370004f01be004f00be003600f90000400600ed
:100380000400fa00008fbe000de2a9001e01be00ad
:10039000002d210031012000e30107000002be0012
:1003a000040278000402e900a41088000cc2a9002d
:1003b0000ce2a9000ca2a900641080000410a100a6
:1003c0000420a100641088000c02a9000d42a800be
:1003d000741080000460a1000470a10074108800f3
:1003e0008520a900c40480000440a1000450a1009d
:1003f0000460a000c40488008d20a8000de2a800bd
:100400000f42a8000080fa00000006000400fa0075
:10041000008fbe001e01be0000242400f100200059
:10042000c10107000002be00040278000402e900d6
:10043000a41088000080fa00000006001400fa00f2
:1004400000579800110f98000e5290000402fb0014
:100450009e0a9000851f7800841f7800e4652900bb
:10046000841f78000e00780019020700e687570005
:100470000e007800020007000080fa00000006006d
:100480000200fa00000f78000a00370075108000a3
:100490000420200004826200e00f520005003a00b0
:1004a0001e027800144278000402fb0084108800c9
:1004b0001e0fe8001e02780014427800e04f520040
:1004c000f2ff3a000080fa00000006000000fa0087
:1004d00060662900eaff07000080fa0000000600bd
:1004e0000040da000000fe001004b10007003500f3
:1004f0009001b100040034007000b1000300350029
:100500009001b10001003c00100005000000050052
:100510006900e100040035006d00e10003003400d3
:100520000002b100010032000000050010000500cb
:100530001004b100030035009001b10001003c003f
:100540001000050000000500800078001104b100d3
:10055000030035009101b10001003c000050a000f3
:10056000000006000a00fa00e00f500027003a00e1
:10057000f4498000e10f520006003200070020001d
:10058000060020000500200004002000e08f53003a
:1005900004003a004721200026212000e520200009
:1005a000c4202000000028001400600003003a006e
:1005b000800b780007002800148a7300020278007c
:1005c0000c0037008703e900950178006180610025
:1005d00002003a00e08f5300faff3a00150078005d
:1005e000e103600007003200960378008758780026
:1005f0000402e900e00f520002003200070a200066
:10060000f1ff3700040051000800370024002000eb
:10061000b4bf9f00c0bf9f00d1bf9f00e2bf9f003b
:100620006a8057003c0807006fb897000080fa0006
:10063000000006000a00fa00e20f500022003e000f
:10064000f4498000e10f520006003200070020004c
:10065000060020000400200005002000e08f530069
:1006600004003a004721200006212000e420200059
:10067000c5202000000028001500600003003a009b
:10068000800b780007002800958a73000540200041
:100690009482620001003a0014a0a0008202780057
:1006a00006003700940378000710b200fdff320007
:1006b000b103fb00070b78008502e900e08f5200d0
:1006c000f8ff3a000800370034002000b4bf9f0054
:1006d000c0bf9f00d1bf9f00e2bf9f006a8057004c
:1006e0000f0807006fb99700020078000080fa0039
:1006f0000000060003f0a200889fbe008a9fbe0093
:100700008c1f7800bc000700c30033006450e10078
:100710004f0032006420e1005200320003826c007e
:1007200007003b000905d0000306d000820f5400eb
:100730000c065d00020039000200320089017800d9
:10074000030678008582550004003d000003fd008b
:100750008103fd008502ea008b854200840f720050
:1007600002003b0060001000e08018006011b8003b
:100770000005eb007a28e1000a0039000600780045
:10078000c75ddd00f707b200878075002d003700d8
:10079000828171000a017800610560008180d100ca
:1007a0000080d3008502e900f9ff3b000604400009
:1007b0008784480002003b0060041400e0841c00b1
:1007c0000988a300070032008a81710082817100cc
:1007d000610164008904d1000884d3008b05e8001e
:1007e000170037000978a30013003a000b00e0005f
:1007f000130034008b05e9000804440089844c0090
:100800000a4474000978a3000d003a000b00e000d0
:10081000070034008b05e9000804440089844c007b
:1008200001003a000b0020000978a300f7ff320016
:100830000001eb0002003700828171000a0178009c
:10084000320007000cf0a70001f0a0007b00370089
:100850006420e10002003a00838f6c007b003300cb
:100860000801be000200be00740037001400200022
:10087000bd003700f4ff2f00bb0037000001be00b1
:10088000480007000470a70003f0a1006509b1004b
:10089000160032000d0035006828e1000600350022
:1008a000f0ff2f00f1ff27000300e00013003b00e2
:1008b0000100280000000500000040008180480081
:1008c0008502e900fcff3a0008003700f88f42007b
:1008d00002003c008000eb00000005008100d10018
:1008e0000080d3008502e800fcff3a000300e0002e
:1008f00002003b0060001000e080180000000600cd
:100900004f89de0082017800b200370081002000ac
:10091000618055000b003d000b00200061fe2f00a0
:100920000100e1001d00340082817100610164005a
:100930008904d1000884d3000000e800faff3a00df
:10094000710020006100640003007000020060007c
:100950000900320061044400e0844c000988a500cd
:10096000050032008b05e8006808e10002003a004b
:100970008904d1000884d300f20f20000258e1005e
:1009800005003d00c75ddd00f907b20089807500f4
:1009900008007800000006000bf827008b007800a4
:1009a00000000500c70ade00f107b200f50fb20033
:1009b00008003200e1cf4200020032000170a000c6
:1009c00024000500810f70000100320004080500ba
:1009d00044000500810f700002003a001400050079
:1009e0008502e9000000400081c04800fcff3b0098
:1009f0000170a000240005000004be00e9ff07000c
:100a00000003be000405be000200be00e5ff0700b3
:100a1000844f7500000006000200be006450e10033
:100a2000050036006420e100020036000968a300da
:100a300001003a000800be000160a0004f067800e7
:100a40004f05be004f04be0000000600f0ff2f005f
:100a5000f1ff2700f9ff3700889fbe008a9fbe0084
:100a60008c1f7800e4ff0700ebff330003866c0067
:100a70006450e100240032006420e10027003200cd
:100a80006150e100220032006120e10021003200cb
:100a90008b854200eb07b1000134b800003ab80082
:100aa0000804420089844a00013ab8000030b800c6
:100ab0008880400009014a00040033000000400023
:100ac00081804800020149008b05e900c909dd0069
:100ad000830170000100320013002000c814de0002
:100ae0004814dd004709de001200b200c808de002d
:100af0000884700085ff070001f0a1000cf0a7003a
:100b000001f0a000cdff37006120e100cfff3200ef
:100b10000801be000200be00f7ff37006150e1008f
:100b2000fcff3a00c9ff37006022b800060220002f
:100b30000000d0008180d2000482d2008582d200e1
:100b40000000a0000202520083825a00030031001c
:100b50000202420083824a000000a1000603e9006d
:100b6000f3ff3a0000000600889fbe008a9fbe0087
:100b7000841f7800a0ff07004f00780011003300a9
:100b8000f0ff2f00838f6c0006003b00040565001a
:100b90000a00a7000800370009f0a6001000200096
:100ba00008003700820f5400838f5c000300390077
:100bb0001000200001003e000000200009f0a70006
:100bc0000000ea004f05be004f04be000000e00038
:100bd00000000600881f7800030478000300e0008e
:100be00007003d0060001000e0801800600119005f
:100bf000e081190002003b0001f02d0003003700e6
:100c00000400070008f0a70001f0a0004f047800de
:100c100000000600889fbe008a9fbe000082700010
:100c20000402710004827100260032000004be003c
:100c30000200be006011b8006b0920009502200080
:100c40000182cf000a0039000541b1000082cf00c7
:100c5000070039000541b1000982cf0004003900c6
:100c60000541b1000882cf00010039000541b10003
:100c700005425200120032000a003b0082817100de
:100c8000610164008100d1000080d3008984d30019
:100c90000884d3008b05e8000442e800f7ff3a001f
:100ca000070037000804440089844c000000480015
:100cb000818048008b05e9000442e900f9ff3a0011
:100cc00012ff07004f05be004f04be0000000600e3
:100cd0000c00fa00889fbe0000047800f4ff270093
:100ce000d4bf9f008004eb0099bf9f0088bf9f0086
:100cf000a8bf9f00240c2000b4bf9f00788157003c
:100d0000cfb0970070805700930107000fba97008b
:100d1000094a78000fba9700080052004f04be003d
:100d20000080fa00000006000c00fa00a0bf9f003f
:100d3000c0bf9f00e6050700b0bf9f00f0bf9f0047
:100d4000140c2000d4bf9f0074815700efb09700af
:100d50006c805700340007000080fa000000060095
:100d6000881f7800e049800014050700000478001f
:100d700008007800e6fd0700e00f5000f9ff3a0098
:100d8000e10f440003003200e149800008007800d0
:100d9000d60507004f04780000000600889fbe00bb
:100da0008a1f7800000478008144780002057800ea
:100db00004fd2f0008024200e90f520002003e002d
:100dc000040478000f00370008007800d8fd070001
:100dd000e00f500005003200e00f55000300320024
:100de00008007800d8fd07000004780008007800ab
:100df000bdfd070000c2eb00e00f5000060032000e
:100e00007805b1008984fb0000c2eb00890f540013
:100e100001003d0008427800044078004f0578004a
:100e20004f04be0000000600f0874700889fbe0008
:100e30008a9fbe008c9fbe008e1f780081bf9f00de
:100e400002077800e04988000002eb00d4b79f0059
:100e500004447800350137008fba97008502e80016
:100e600085bf9f008985fb000b007800a8fd070067
:100e7000e00f500002003200b9ff07002b013700dd
:100e800054c2b30084cf54001c013a00804478005f
:100e900025c0b300004578000fb8970005467800dc
:100ea00080057800040037004cc0b3000100370013
:100eb0002cc0b3000b0078003b42780095c6b3000d
:100ec000854f5200960032001d003e00e6c25200df
:100ed000854f52006a00320012003e00f7c25200f5
:100ee000854f52002f00320006003e00e04f5200b6
:100ef000aa003200a5c2b300854f520074003a0028
:100f00002600370085c5b300854f520070003a00b7
:100f10009cef9f008bbf9f0015002000d5b79f005e
:100f20001c00370045c6b300854f52007c003200dc
:100f3000e4c24200854f520065003a00dcff3700f2
:100f400035c7b300854f52001a00320007003e003b
:100f5000e7c25200854f520012003200e3c2420045
:100f6000854f52005a003a007100370055c7b30050
:100f7000854f52006a003200e3c24200854f5200a2
:100f800053003a009cef9f008bbf9f000002eb00d4
:100f9000d4b79f000bc1b300680037000a45e800d2
:100fa000c4ff3700e24f5600bfff32008cc0b300d1
:100fb000c0ff37008bbf9f0069ff0700e04f55005f
:100fc00002003a004e027800e4b79f00e04980003a
:100fd0007a04070080057800e18f450014003a008c
:100fe0000b007800ce0037008fba97001502fb0087
:100ff000848f550005003a000c027800e4b79f008a
:101000008502e80085bf9f0017003700e04f5500bc
:1010100001003a000b5e78008944e9000d003200bf
:10102000e049800065040700800578000100370072
:101030006fb697000b02e800e10f5200080036007f
:101040000b00780032fd0700e00f5000e6ff320091
:10105000030037000c027800e4b79f00020037005d
:101060008c027800e5b79f00e04f5500af003a00d2
:101070000844e8006fb297000a4a7800ab003700d6
:101080008bbf9f00e04f550003003a000844e80082
:10109000ce05780001003700efb59700e0498000e9
:1010a00046040700e10f40009d003200e04f55006c
:1010b00001003a00805d78008944e9004240a900bf
:1010c000f6ff3c000b027800e4b79f009700370062
:1010d0008484fb0004fd2f0009024200e90f520046
:1010e00009003e0016040700804478000b027800d7
:1010f00084057800b402fb000503b100e98f5200bb
:10110000fbff36006bff37008bbf9f00e04980007c
:101110002a040700808f54007c003a0083003700c7
:101120009cef9f008bbf9f00abc0b3000300370054
:101130009cef9f008bbf9f008bc0b30008ff070090
:10114000e04980001d040700f0b79f008042eb00db
:1011500085ef9f00d402200080027800848f520027
:1011600005003a00e049800014040700f0b79f0032
:1011700014c0b30084ef9f005fb197008b407800ec
:101180007fb0970005ff0700e14f40000b003a00d9
:10119000e14980007fb09700d4040700e04f54007d
:1011a00066003a00e449800034009000700060005e
:1011b000630032000080eb00610037000403200070
:1011c000ffb29700848f520015003a00e04980007a
:1011d000fa03070084072000840f500004003a003f
:1011e0005fb29700e00f5200070032000a0037009c
:1011f00084052000840f500007003a00dfb29700fa
:10120000e08f520004003200e0498000eb03070049
:10121000f0b79f0002003700e1498000b3040700e7
:101220006066b8000b82fb0005002000a4b79f0099
:10123000b5b79f002fb19700bfb197000c00be005b
:10124000390507000006be005fb197008b407800ab
:101250007fb09700d1fe07000080fb000100200056
:101260000006460081864e008944e90008003200ed
:10127000e0498000d1030700f0b79f005fb19700fd
:101280008b407800c5fe0700e14f4000e9ff3a00bf
:101290005fb197008b4078007fb09700bffe0700da
:1012a000e14f400003003a00e14980007fb0970021
:1012b0008e0407008fea9700e0cf52000200320050
:1012c00060061600e0861e00e04f550017003a0049
:1012d0000844e8000e87e9001fea9700e44f520037
:1012e00003003a001e0278000c8abe000f0037008f
:1012f0001e0278000c0a78000c003700e0498000dc
:10130000ae030700808f550008003200e10f400057
:1013100003003200e1498000740407000700370031
:10132000e04f540005003a00050037000fba97005f
:1013300094447800e0cf5400c7fe3a000880fb00d8
:101340004f0778004f06be004f05be004f04be0099
:101350000f01b10000000600ef03b000889fbe003f
:101360008a9fbe008c9fbe008e1f7800800678008a
:10137000d1af9f00a2b79f000007eb0064033700c6
:10138000dfa897008100e800d1af9f0054c2b300ee
:10139000844f500006003a00010278000006eb007e
:1013a00001c3b30000c2b300b7c2b3000e003700e0
:1013b0003d0290000404b200040032001d027800d7
:1013c000004a7800840ee800050037000000fb00aa
:1013d0008d007800fa030700e10f40004c03320053
:1013e0000e07e8004a03370084027800344378008f
:1013f000d2c2b300824f53000900320005003c0006
:10140000804f530008003200874f53000c003a0011
:1014100007003700814f530009003a0006003700eb
:101420000c30a000f0ff37000c00a000eeff3700ea
:101430000c10a000ecff37000c20a000eaff3700e2
:1014400062026600010032000c00a1006802660022
:10145000010032000c20a1000602fb000403b100d1
:10146000e90f52000c003e00050378000002eb007b
:101470006a22b900b603fb000703b10004824300ef
:10148000860278009603fb000703b100e98f530042
:10149000f7ff3600080037000002eb00a7c2b300d8
:1014a000874f530004003a00afb197004302780021
:1014b000a3b79f008502e8000003eb0096b79f00ea
:1014c000e6c2b300954f13000c003a000ce0a000f8
:1014d00064435300d54f1300030032000503780026
:1014e0000000eb0009003700afb397004704780015
:1014f000a7b79f0098b79f008502e8000503780012
:10150000090037006a00b9000080430086027800b5
:10151000b603fb000703b100e98f5300f9ff360063
:1015200090b79f00f5ff3700b6427800d6af9f0016
:10153000cac6b3008acf5200250032000f003c001b
:1015400036c6b30086cf52009d00320004003c0036
:10155000e0cf5200f30232006b4353000f0037001c
:1015600046c6b30086cf52001700320065434300e1
:1015700086cf5200b0003a001300370036c7b300e0
:1015800086cf52002000320007003c006443530025
:1015900086cf5200150032000643e80086cf520085
:1015a000a5003a001400370056c7b30086cf52009a
:1015b000a80032006343430086cf52009e003a00e9
:1015c000e5779f000e003700e5779f00a300370006
:1015d000f00366000501200001003200050028002c
:1015e0008c82720005067800cfff3700e5779f00f8
:1015f0000c60a00099003700e5779f000c50a00018
:101600000c70a00095003700e5779f00afb59700fc
:10161000cb027800abb79f00b5b79f00e08f5200b8
:1016200002003a0081862000b1b79f003fb39700c7
:101630008002eb00010037008502e800e6c37a0073
:10164000e0cf5300fcff3a00c5b79f001fb19700e1
:10165000e00f510005003200cfb19700830f510019
:101660000200310082027800c5b79f00cfb2970018
:101670000004eb00850f5200010036000504520003
:101680006806660009c2b3000f0032002900370067
:101690003d0290000404b200040032001d027800f4
:1016a000094a7800840ee800050037008d007800b4
:1016b0000002200042030700e10f40000100320059
:1016c0000e07e8000804e900e00f5400f0ff3a00bc
:1016d0000084eb0017003700bd0290000504b20043
:1016e000090032009d0378008802780035437800b5
:1016f000864b7800870ee80005047800e04f530021
:101700000a003a0010003700880278003500fb001c
:10171000050478008d00780084bf9f00280307002f
:101720000fba9700e10f4000070032000e07e800f3
:1017300005003700080278003fb49700cfb4970047
:101740005fb59700efb59700890278008504e9003e
:10175000e08f5200e0ff3a00b8b79f00c9b79f0082
:10176000dab79f00ebb79f000404780009c2b3000a
:10177000e00f56000f003a00650237003d0290006e
:101780000404b200040032001d027800094a780007
:10179000840ee800050037008d007800000220006c
:1017a00007030700e10f4000010032000e07e800c8
:1017b0000804e900e00f5400f0ff3a00540237003b
:1017c000afb0970041047800a1b79f00cfc4de00fe
:1017d000090578008a0578000800be000a01be00ed
:1017e0004800de00c80add0000807200e0779f003c
:1017f0007003660009003200e04f5000070032001d
:10180000e14f400005003200f0779f00887f9f0085
:1018100026002000c6b79f0003003700f8779f001e
:1018200017002000c7b79f0078fb2f0008844700ef
:10183000b8b79f0085ff3700e5779f0069fb2f0051
:1018400089844700b9b79f001a002000cab79f00db
:101850007eff3700e5779f000c0cb3008c02780008
:10186000050cb2003b003a00e00f560005003d00b9
:10187000afb297004501be004500be00a5b79f006e
:101880000f003700f0026600120032002fb49700fc
:101890004803be00a8b79f00f69f9f0087a79f0040
:1018a00098029000cfaade0095a79f00a5a79f00f1
:1018b0007f9897008fa097001fa19700afa1970076
:1018c000b0b79f00c1b79f00d2b79f00e3b79f009a
:1018d0000b003700afb09700c1027800a1b79f009e
:1018e00005047800cfc4de00090578008a05780079
:1018f000b8b79f00c9b79f00dab79f00ebb79f004a
:101900003fb09700cfb097005fb19700efb197005d
:10191000e00f5000e08f5800e00f5900e08f5900b1
:1019200032003d003c00b3006000b8006011b80018
:101930003fb49700cfb497005fb59700efb597001d
:1019400008045000898458000a0559008b85590005
:1019500022003700e00f560005003d00afb29700af
:101960004501be004500be00a5b79f000f0037002f
:10197000f0026600120032002fb497004803be0048
:10198000a8b79f0096af9f00a7af9f008004eb0011
:10199000b9af9f000005eb00caaf9f001fa89700da
:1019a000afa897003fa99700cfa99700b0b79f00b5
:1019b000c1b79f00d2b79f00e3b79f000b0037006d
:1019c000afb09700c1027800a1b79f00050478006e
:1019d000090020000a0020000b002000b8b79f007b
:1019e000c9b79f00dab79f00ebb79f009fb497007d
:1019f000e08f54000d003a001a0020009ab79f00b3
:101a00003fb09700cfb097005fb19700efb197005c
:101a1000e00f5000e08f5800e00f5900e08f5900b0
:101a2000020032008000eb0091b79f000c017800ab
:101a3000020cb20082b79f0005042000850f510000
:101a40003400320003003c00e00f51000800320077
:101a500048003700050820008fb19700858f51009e
:101a600014003200050c2000858f510041003a001f
:101a70008687200015c0b3003600be003601be00c8
:101a80003fb49700cfb497005fb59700efb59700cc
:101a90000040e10001c8e10002d0e10003d8e1000c
:101aa000330039008542e800f4cf5200f2ff3a00db
:101ab0002f00370015c0b3000001200001002000f6
:101ac0006011b8003fb49700cfb497005fb597009e
:101ad000efb597000040e10001c8e10002d0e1004d
:101ae00003d8e10022003900490020000000d000a6
:101af0008180d2000281d2008381d2008904e90072
:101b0000faff3a008542e800f0cf5200edff3a00bc
:101b10001700370015c0b30080002000010020002e
:101b20006011b8003fb49700cfb497005fb597003d
:101b3000efb597000040e10001c8e10002d0e100ec
:101b400003d8e1000a003900390020000000d0006d
:101b50008180d2000281d2008381d2008904e90011
:101b6000faff3a008542e800f5cf5200edff3a0057
:101b7000e5779f006f7597008a02fb009fb597007d
:101b80008b8f520002003d00eb779f00040037006e
:101b90001fb09700850f500001003d0095b79f00d2
:101ba000e00f520003003200e30266000100320041
:101bb0000402e900050024008502660006003200e8
:101bc0009fb09700810f52000200340001025200c2
:101bd000010037000002eb006f7197008202fb00ea
:101be0008001eb00f3af9f00850f5200020034002c
:101bf00085025200f5af9f00640266003b00320090
:101c0000e202660061026600e08f520011003200bd
:101c1000bd0290000504b200080032009d02780069
:101c2000b6c2b300e00f52000100320006c3e80064
:101c3000864a7800850ee80015003700b0022000c3
:101c4000e00f5200010032000080e8008d007800b3
:101c50000c003700e00f52000e0032003d029000f1
:101c60000404b200050032001d02780005c2b30072
:101c7000054a7800840ee800050037008d007800e2
:101c800000022000ce010700e10f400001003200f9
:101c90000e07e8007faa9700e00f52004f003200c5
:101ca00008c3b300840478003d0290000404b2002d
:101cb000040032001d027800084a7800840ee80013
:101cc000050037008d00780000032000bc010700ec
:101cd000e10f4000010032000e07e8008904e9002e
:101ce000f1ff3a00f9af9f003c003700ffaa9700d0
:101cf000e08f5200140032006802660012003a00c1
:101d000008c2b300850478003d0290000404b200cc
:101d1000040032001d027800084a7800840ee800b2
:101d2000050037008d00780000022000a4010700a4
:101d3000e10f4000010032000e07e8008904e900cd
:101d4000f1ff3a00f9af9f00e2026600610266000f
:101d5000e08f520011003200bd0290000504b20075
:101d6000080032009d027800b6c2b300e00f5200b6
:101d70000100320006c3e800864a7800850ee800bc
:101d800015003700b0022000e00f520001003200c1
:101d90000080e8008d0078000c003700e00f520052
:101da0000e0032003d0290000404b2000500320033
:101db0001d02780005c2b300054a7800840ee800d1
:101dc000050037008d007800000220007c0107002c
:101dd000e10f4000010032000e07e8001fb397003a
:101de0000602e900c223dd00c7a79f006323b900f4
:101df00006047800b8a79f004322dd000587200075
:101e000085024200e5af9f00f0046600e99f9f0055
:101e10000c0578000a02b200da9f9f00a300370089
:101e20009fb597008b05e9009bb79f000fb0970007
:101e300001042000810f50007300320003003c00b9
:101e4000e00f5000080032007e0037000408200038
:101e50000fb19700840f510056003200040c20008f
:101e6000840f510077003a00e00f56001f003d003c
:101e7000efa997003304be002305be000802be0090
:101e80000a03be003fb09700cfb097005fb1970044
:101e9000efb19700d5020700e0779f000000fb003c
:101ea000cf80de0001017800820178000802be00c8
:101eb0000a03be00360307003fb29700cfb2970077
:101ec0005fb39700efb397000002520081825a007f
:101ed00002035b0083835b00b4b79f00c5b79f001c
:101ee000d6b79f00e7b79f002e003700ef9a970004
:101ef000e08f5200220032003fb29700cfb297002d
:101f00006fab97003604be002605be000801be0078
:101f10000400be0084bf9f00f5b79f0002fb0700ce
:101f2000e0779f000000fb00cf80de000801be00cc
:101f3000fd0107000fba9700ffb29700000452009e
:101f400081845a00d8a79f00e9a79f008004eb0076
:101f5000f9a79f000005eb008aaf9f005fa09700e4
:101f6000efa097007fa197008fa99700b0b79f00bf
:101f7000c1b79f00d2b79f00e3b79f0009003700a9
:101f8000efa89700110278003fb1970011000900f7
:101f90000481d800a4002000110009000480d800aa
:101fa000e1779f00ef7197000343b000e3779f0054
:101fb0002400370074852000df9a9700e08f5200dc
:101fc00001003200648420003fb09700cfb097003a
:101fd0005fb19700efb197004fa397000603e900a8
:101fe000050033008301d1000281d3008180d3003a
:101ff0000080d300f9ff37006f0060006440780074
:10200000e0779f000f0037003fb29700cfb29700f4
:102010005fb39700efb397003fa497000804e9006f
:10202000050033008703d1000683d3008582d300e7
:102030000482d300f9ff3700674262000443b00016
:10204000e4779f003d0290000404b20007003200d4
:102050009d0278006f729700844a7800850ee80030
:10206000e04f520007003a0007003700ef74970076
:102070000900fb008d007800d1000700e10f40004f
:10208000010032000e07e8004fa5970064055500d7
:10209000caa79f00bfa59700e3855500bba79f0077
:1020a0006fa8970068005000e0af9f009fb09700b6
:1020b000e08f50005aff3a006806660014003200b4
:1020c0007fa99700e00f51001100340008c2b3004f
:1020d000820478003d0290000404b2000400320043
:1020e0001d027800084a7800840ee80005003700d9
:1020f0008d00780000022000b1000700e10f4000d1
:10210000010032000e07e8008904e900f1ff3a00ff
:10211000dfa9970013407800e0779f00e04f500060
:1021200097fc3a000e0078004f0778004f06be007b
:102130004f05be004f04be00ef03b10000000600d3
:1021400006c2b3000002780004007800b0427800b4
:1021500086cf5200fbff3200e9cf5200f9ff320078
:10216000d6c2b30086cf520003003a0000027800c6
:1021700016c0b300050037000043eb00b7c2b30040
:1021800087cf520001003a00000278000000eb0007
:10219000020037006a00b90000804200b402fb0070
:1021a0000503b100e98f5200faff3600e04f5300fb
:1021b000010032000000ea0000000600881f7800dd
:1021c0000004780038029000f1026200e18f5200b2
:1021d00006003a00840278000520b20008003200b0
:1021e00098029000e08f5200050032003802900003
:1021f0000440a000340498000080eb002000370069
:102200000490a1003404980018029000e00f5200de
:10221000070034000402e900140498001802780052
:10222000944278000580fb00040ce80005003700ac
:10223000380290000404b200ecff3a000800780075
:1022400011000700380290000408b2000c003a00a8
:10225000fa0f500008003a0028029000e00f5200e8
:10226000e2ff3200180290000402e8001404980013
:10227000180ce900ddff3700ed0f5000e2ff3200df
:102280004f047800000006000200fa00889fbe009c
:102290008a9fbe00000478000002eb00140498003e
:1022a00038029000610262000080eb0040003200c2
:1022b000649320008042eb0094cf12000f003200a4
:1022c0004b932000c9fd2f008b8444002a1020006e
:1022d000390290002410b2008a0f520002003a0026
:1022e00009007800a0000700ec8444008b8f5400a4
:1022f000f7ff3a0064932000004aeb005801900079
:10230000e00f51000e003a00120498001200200065
:10231000ea8057004800900092f80700e10f500053
:1023200003003a006ff297000480fb0020003700a2
:10233000380290000440a0003404980013003700d5
:10234000a80090004800900086f80700100498004c
:10235000e00f500003003200e10f40000d003a0092
:1023600003003700380290000440a000020037004c
:10237000380290000403b30034049800a8029000cf
:10238000050c78000002eb00140498000080eb00bc
:102390000700370028029000040c78000000e900d4
:1023a00010049800944278000580fb00040ce800bb
:1023b0004f05be004f04be000080fa00000006007a
:1023c000889fbe000104780038029000e20262009b
:1023d0008084eb003b003200040378000620b2004a
:1023e0009802900002003a00e08f520035003a0057
:1023f0000490a0003404980080047800f90fb20023
:10240000e08f520002003a00a8029000050c78000c
:10241000ea8f540005003a000408b20003003a00b5
:1024200088007800d0002000e5ff07001802900027
:10243000d8029000850f52000b0032000402e80021
:102440001404980018027800094a7800040ce80087
:1024500015c0b30064932000054a7800ea8f540049
:1024600018003a000500370088007800094078001d
:1024700067000700800478001200370038029000df
:102480000410b2000f00320018019000a800900064
:102490004800900067f8070018029000840f500071
:1024a00004003200380290000403b30034049800a2
:1024b0008084eb000002eb001404980028029000d6
:1024c000040c7800090078004f04be0000000600ec
:1024d000000278008042eb00b4cf1200fdff3a000a
:1024e0000080ea000000420000000600e10f40000a
:1024f0001c003200310290001420b200e10f5200a3
:1025000015003a0021039000e00f53001200320042
:1025100011029000d1029000850f5200100032008d
:1025200091027800868f520002003a008508e80088
:10253000020037000402e800940098009102e900cc
:1025400085087800310290000404b20005003a00ca
:10255000804a7800000006000080eb0000000600c2
:102560000080eb0000000600881f7800000478005f
:1025700038009000000278001420b200e10f5200f1
:1025800005003a000002eb001404980028029000b5
:10259000040c780019003700800278002520b20072
:1025a0000000eb0024202000848f520016003a0027
:1025b000a8009000808f5000130032001801900096
:1025c000800f5100100032004800900019f80700f9
:1025d00018029000840f500003003200380290006f
:1025e0000403b300340498000002eb0014049800c4
:1025f00028029000040c7800380090000002b2001d
:10260000010032000080eb004f047800000006005b
:102610000200fa00889fbe00a0ff9f00010478001e
:1026200038029000840278000504b20002003200f3
:102630000000fb0035003700e202620005003a00ae
:102640000403b30034049800150498000080eb00e4
:102650002e003700d8049000e08f540006003a00a6
:1026600012002000e680570048009000f1f70700b4
:102670001904980023003700a8029000e08f520050
:1026800008003a009593200025049800050c780076
:102690002500200055049800150498000430a0007f
:1026a0003404980018019000a800900048009000a1
:1026b000e0f70700280290008082eb0015049800e4
:1026c000affa9700054a7800040ce8002ffa97004b
:1026d000ea4f52000b003a00380290000410b2009a
:1026e0000800320018019000a800900048009000f7
:1026f000d0f707000002eb0014049800a802900035
:10270000050c78002ffa97000400fb004f04be0070
:102710000080fa000000060000c0da000000060099
:1027200000c0da0000000600020ab900001bb90070
:102730000200b80081004200810043000000060052
:10274000889fbe008a9fbe003004be002005be00e8
:102750000404440085844c0006054d0087854d0027
:102760000898be000a90be000440e10005c8e100e0
:1027700006d0e10007d8e100020031006800400007
:102780001008e8004f05be004f04be000000060020
:102790001000fa00889fbe008a9fbe000605be009a
:1027a0000404be003002be002003be00c4b79f0078
:1027b000d5b79f00e6b79f00f7b79f000802520009
:1027c00089825a000a035b008b835b0084bf9f00f1
:1027d00095bf9f00a6bf9f00b7bf9f000498be0093
:1027e0000698be00110020004fb29700dfb297009c
:1027f0006fb39700ffb397000820e10009a8e1003c
:102800000ab0e1000bb8e100010039008000eb00e4
:10281000108810004f05be004f04be000080fa0073
:10282000000006001400fa00889fbe008a9fbe00c8
:102830008c9fbe003f0007000605be000404be00da
:102840000006eb00ccb79f00bcb79f00acb79f0061
:102850009cb79f008cb79f000d0420004fb39700da
:10286000bfb29700860343002fb29700e00f5300da
:1028700004003d003d0007000f004000b0ff0700ce
:1028800003003700390007000f004000c0ff0700b9
:10289000cfb2970095bf9f00e08f5200090035002e
:1028a0002b00070014002000050020006033b80052
:1028b0000000720081807200020173008381730046
:1028c0001c0007000c06e8008d0f5600e3ff3a00dd
:1028d0001fba9700e00f520005003d000802be003d
:1028e0000a03be0000fe2f000f00400094ff070007
:1028f0004faa9700e00f520008003a000fb497006b
:102900009fb497002fb59700bfb59700d8b79f0029
:10291000e9b79f00fab79f008bbf9f000c0007002c
:102920004f06be004f05be004f04be000080fa00f7
:1029300000000600010007000000060090b79f009d
:10294000a1b79f00b2b79f00c3b79f000000060069
:1029500001000700000006001fb09700afb097000d
:102960003fb19700cfb19700000006004f2bde006b
:1029700086837300a7b79f004f23de008582420045
:102980008682720095b79f00ffaa97004f2bde004a
:10299000040242000602720084b79f006faa9700eb
:1029a0004f23de008582420086827200f5af9f00d1
:1029b000e9ff07004f18de00040242000002720027
:1029c000e4af9f00e4ff0700000040008180480062
:1029d0000201490083814900d8ff07000802be00b8
:1029e0000a03be0000fe2f0000000600881f7800ca
:1029f00018002000881f78008aff07008f87e900f1
:102a00004f04780000000600801feb0085ff0700e0
:102a10008f87e90000000600889fbe008a9fbe00e5
:102a2000e00f5000e08f5800e00f5900e08f590090
:102a30000c003d006044b8006055b8000000540030
:102a400081805c0002015d0083815d001800200030
:102a50001500070008003d00180007000004eb0007
:102a6000050037000004eb000f00070002003d00e6
:102a70001200070018002000dcff0700e00f5400e0
:102a8000060032006022b8006033b8000000520037
:102a900081805a0002015b0083815b004f05be000c
:102aa0004f04be0000000600e00f5200e08f5a0005
:102ab000e00f5b00e08f5b00000006006044b800a0
:102ac0006055b8000402540085825c0006035d0076
:102ad00087835d0000000600889fbe008a9fbe00bd
:102ae0008c1f7800e00f5000e08f5800e00f590075
:102af000e08f59000d003d006044b8006055b800fb
:102b00000000540081805c0002015d0083815d0053
:102b10001c0020000820e10009a8e1000ab0e10043
:102b20000bb8e1000d003d00080037000006eb0087
:102b3000e00f5200e08f5a00e00f5b00e08f5b0077
:102b400006003d006044b8006055b800040254001f
:102b500085825c0006035d0087835d00aaff070095
:102b6000e00f5600060032006022b8006033b80063
:102b70000000520081805a0002015b0083815b00eb
:102b80004f0678004f05be004f04be00000006004f
:102b9000889fbe008a9fbe008c1f78000006eb0055
:102ba000e00f5000e08f5800e00f5900e08f59000f
:102bb00007003d006044b8006055b80000005400b4
:102bc00081805c0002015d0083815d001c002000ab
:102bd000e00f5200e08f5a00e00f5b00e08f5b00d7
:102be00007003d006044b8006055b800040254007e
:102bf00085825c0006035d0087835d000c00a200f7
:102c00000c000700e00f5600060032006022b800fa
:102c10006033b8000000520081805a0002015b005e
:102c200083815b004f0678004f05be004f04be0055
:102c300000000600889fbe008a9fbe008c9fbe00d9
:102c40000404b8000506b8008904460060854e00fb
:102c50000606b8000a054600e0854e000706b800e3
:102c60008b054600040eb800890446000a854e0014
:102c7000e0854d00050eb8000a0546008b854e0024
:102c8000060eb8008b0546000416b8000a0546007b
:102c90008b854e000516b8008b054600041eb80053
:102ca0008b0546000800be000a01be004f06be00ac
:0c2cb0004f05be004f04be0000000600ef
:020000040000fa
:102cbc003c25000063250000346400003e00000049
:0c2ccc000a000000256400000000000069
:020000040000fa
:102cd8000200fa00000f78001e02780064418800a4
:102ce8000080fa00000006000200fa00000f7800d9
:102cf8001e027800744188000080fa000000060077
:102d08000200fa00000f78001e0278008441880053
:102d18000080fa00000006000200fa00000f7800a8
:102d28001e027800944188000080fa000000060026
:102d38001400fa00881f7800100f98009541800051
:102d48001e0a9000048f5200654180001e02780020
:102d580004aab90004027800cfa2de000400be0075
:102d6800e5f607000002be00140798002507980042
:102d7800a4418000b541800018c0b30002002000c3
:102d8800a36f24000400be00b8f607000002780014
:102d9800e00f520001003c000044eb00e04f5400fb
:102da8000400320004002000a56f2400a44188001c
:102db800b5418800a4418000b541800018c0b30027
:102dc80002002000a36f2c000400be00a5f6070037
:102dd80000027800e00f5200010035000044eb00cb
:102de800e04f54000400320004002000a56f2c00be
:102df800a4418800b54188001e027800cfa2de00f9
:102e08000400be00bcf607000003be00a441800019
:102e1800b54180000401be000600be0034f607007c
:102e28000002be00a4418800b541880074418000ba
:102e3800cfa2de000400be00aff607000003be000c
:102e4800a4418000b54180000401be000600be0018
:102e5800fff607000002be003407980045079800f7
:102e6800c44180001e02120054079800854180006a
:102e78005e02900004aab90004027800cfa2de0026
:102e88000400be009cf607000002be00640798001c
:102e9800750798001e027800c44188003e01900022
:102ea800ce0190001e009000ae00900010f60700c2
:102eb8000002be006e019000fe0190000400be00fa
:102ec8000bf607000002be000400be0069f607000a
:102ed8000002be0004027800040f98000e0a900059
:102ee800040078004f0478000080fa000000060013
:102ef8000000fa002200070080027800a416800073
:102f08006202620004f0a7000402ea000402e90079
:102f18004f22de00848f520010003200f4418000fe
:102f28000402e800f4418800f4418000ea0f5200ee
:102f38000c0036000002eb00f4418800a416800063
:102f48006202620004f0a7000402ea000402e90039
:102f58004f22de00e4418800020037000002eb0047
:102f6800f44188000080fa00000006000000fa0022
:102f7800e4418000d44188000080fa000000060087
:102f88000000fa00e4418000040078000080fa00a4
:102f9800000006000000fa00d44180000400780018
:102fa8000080fa00000006000200fa00000f780016
:102fb8001e027800e30f520002003a00d602a80071
:102fc800040037001e027800e40f520001003a00a6
:102fd800dd02a8000080fa00000006000200fa00e6
:102fe800000f78001e027800e30f520002003a003a
:102ff800d602a900040037001e027800e40f520030
:1030080001003a00dd02a9000080fa000000060075
:103018000200fa00000f78001e027800e30f520049
:103028000f003a00b41680006102620004f0a700a5
:103038000402ea000402e9004f22de00044278009c
:103048000482fb0061026200b6168000e5ff2f00d3
:103058008502630005027200b4168800120037006a
:103068001e027800e40f52000f003a00b4168000e8
:103078006102620004f0a7000402ea000402e90009
:103088004f22de00044278000482fb0061026200e5
:103098004822dd00e6168000f5ef2f008502630068
:1030a80005027200e41688000080fa00000006009d
:1030b8000000fa00d222a800c682a800c6a2a80072
:1030c800d202a900d902a900d802a900d822a900d1
:0c30d800d842a9000080fa0000000600a9
:020000040000fa
:1030e4003a0800000600000000000000400800004c
:1030f400020000000200000064000000420800001a
:1031040002000000000000002c0800000e00000077
:1031140000000000000800002c0000000000000077
:10312400440800000200000002000000feff00004e
:103134003c090000020000000000000046080000f6
:10314400ca00000002000000303132003334350080
:1031540036373800394142004344450046003000c8
:103164003132330034353600373839006162630058
:103174006465660000286e00756c6c002900000010
:10318400010000000000000000000a000000000030
:1031940000000000006400000000000000000000c7
:1031a400e8030000000000000000100027000000f9
:1031b4000000000000a086000100000000000000e4
:1031c40040420f00000000000000800096980000bc
:1031d400000000000000e100f50500000000000010
:1031e40000ca9a003b00000000000000e40b5400f9
:1031f400020000000000e80076481700000000000c
:103204000010a500d4e8000000000000a0724e00e9
:1032140018090000000040007a10f3005a00000072
:103224000080c600a47e8d000300000000c16f0072
:10323400f2862300000000008a5d780045630100e7
:1032440000006400a7b3b600e00d000000e88900a8
:103254000423c7008a0000001009000026000000b3
:1032640002000000370900000037090009000000cf
:103274000002000039090000003909000e020100b3
:103284000000000000000000000000000602020030
:1032940000000000100900003609000006000000cc
:1032a400000000003e0900000200000002000000cf
:0832b400010000000000000011
:020000040000fa
:1032bc000000fa0014428000040078000080fa003c
:1032cc00000006000600fa00004f78001107980075
:1032dc00220798001e02fb006123b900c4fb2f00db
:1032ec00f5ff2f000602420087824a006603200089
:1032fc0007002000860f5200878f5a005d003e00a9
:10330c0004600100420037005a00370059003700b2
:10331c00580037005700370037003700550037008a
:10332c00540037005300370052003700510037006b
:10333c00500037002a0037004e0037004900370094
:10334c00440037003f0037004a0037003a0037008e
:10335c00480037004700370046003700450037006b
:10336c00440037004300370042003700410037006b
:10337c00400037003f0037003e0037003d0037006b
:10338c003c0037003b0037003a003700390037006b
:10339c00380037003700370036003700350037006b
:1033ac00340037003300370032003700310037006b
:1033bc00300037002f0037002e0037002d0037006b
:1033cc002c0037002b0037002a003700290037006b
:1033dc00280037002700370026003700120037007e
:1033ec001e00900039fe07009e009000f0c4b30050
:1033fc000ff407001f0037001e00900039fe070075
:10340c009e009000f0c4b30009f4070019003700c7
:10341c001e00900039fe07009e009000f0c4b3001f
:10342c0003f40700130037001e029000040078001c
:10343c00a10007000f0037001e00900035fe0700aa
:10344c000c0037001e02900004007800effe07000d
:10345c00080037001e02900004007800d1fe07001f
:10346c00040037001e02900004007800dafe07000a
:10347c00000000000080fa00000006000000fa00c6
:10348c0004408000040078000080fa000000060070
:10349c000000fa000002eb00044088000080fa00f3
:1034ac00000006000000fa00044080000402e8005e
:1034bc00044088000080fa00000006000000fa00ba
:1034cc00044080000402e900044088000080fa00f7
:1034dc00000006000600fa0020479800210798001b
:1034ec00ae429000c4c3b30084cf520003003a0034
:1034fc000082eb002442880032003700ae4290007c
:10350c00e4c3b30084cf52001a003a002542800075
:10351c0024802000848242000042eb00844a780020
:10352c008e1f780084662900841f7800208020007c
:10353c00faf50700e48757009e027800a482200069
:10354c00144278000402fb002e01900085007800e4
:10355c00040078005bff07000042eb000002fd0056
:10356c002ae8b7000002fd00e4ff2f002442880087
:10357c001400370024428000e10f420006003a009c
:10358c002e4090002ae8b700244280000402e80094
:10359c00244288000b00370024428000e20f4200d6
:1035ac000800320025428000248020000482420062
:1035bc00ae429000054a7800244280000402e800e4
:1035cc00244288000080fa00000006000600fa0081
:1035dc00200798000002eb00040f78000b00370066
:1035ec000002eb0014079800030037001e02900045
:1035fc000402e800140798009e029000d47c20007e
:10360c00848f5200f9ff36001e0fe8002e02900046
:10361c009e027800848f5200f1ff39000080fa007e
:10362c00000006000200fa000002eb00040f780014
:10363c009efe0700002d2100310120004df30700f4
:10364c00970007007100070046000700dc22a80065
:10365c00dc42a900d602a80010002000dbff070006
:10366c0022fe07004afe070000027800e10f52001c
:10367c000f003a0041fe070000027800e00f5200f4
:10368c000b003a001e027800e00f520003003a00d3
:10369c0014002000040f7800020037000002eb0039
:1036ac00040f78009e00780020c4b30060f307007c
:1036bc002dfe0700e8ff37000200fa00000f78002b
:1036cc001e027800044288000080fa000000060008
:1036dc000400fa003509800014002800048242001e
:1036ec0014079800f4ff2700340988001e0090008e
:1036fc008efd070000027800040f78001e0278008f
:10370c00e00f520003003400dc22a900dc42a800c8
:10371c0003003700dc22a800dc42a9001e0fea00df
:10372c00843e20009e027800848f520002003400f8
:10373c00843e2000b40e88009e0278000442800073
:10374c00848f5200030031000002eb00b40e88009d
:10375c00020037001e027800b40e88000080fa00c8
:10376c00000006000000fa0005e1a9000002eb00d1
:10377c0004088800240880000440a0000450a10024
:10378c0024088800741a2600140888000421a90053
:10379c0005a1a80004c1a9008460a900a4048000ac
:1037ac0004c0a00004d0a00004e0a100a404880080
:1037bc008c60a80005e1a8000080fa00000006005b
:1037cc003600f800809fbe00829fbe00849fbe0022
:1037dc00869fbe003400f80000002000a001880085
:1037ec000000fa008460a900b9ff07000080fa000d
:1037fc003400f9004f03be004f02be004f01be0063
:10380c004f00be003600f900004006000000fa0030
:10381c00a8a2a800a882a80023a1a80014098000cf
:10382c000480a0000490a00004a0a000140988004b
:10383c0022e1a90022c1a9002241a9002221a9004c
:10384c0024e1a9000082eb0044098800f4ff270062
:10385c00340988008900a9009100a8004405800063
:10386c000400a0000410a1000420a000440588005e
:10387c000080fa0000000600801f78003400f80079
:10388c0000002000a00188000000fa008900a900b7
:10389c000080fa003400f9004f0078000040060068
:1038ac000000fa00c1e1a900040e80000420a10070
:1038bc000430a100040e8800341f2000240e880060
:1038cc00c901a800c801a800c881a900c921a80085
:1038dc00c821a900c8a1a900c941a800c841a900d4
:1038ec00c8c1a900c1e1a8000080fa0000000600d0
:020000040000fa
:0200000401f009
:04000000f6bf000047
:020000040000fa
:0200000401f009
:04000400ff7f00007a
:020000040000fa
:0200000401f009
:040008007ff900007c
:00000001FF
