:020000040000fa
:080000000001040000000000f3
:020000040000fa
:1000080044030000440300004403000044030000cc
:1000180044030000440300004403000044030000bc
:10002800440300004403000044030000e0330000e0
:10003800440300004403000044030000440300009c
:10004800440300009a0100004403000076320000d7
:10005800440300004403000044030000440300007c
:10006800440300004403000044030000440300006c
:10007800440300004403000044030000440300005c
:100088007002000044030000440300004403000021
:10009800440300004403000044030000440300003c
:1000a800440300004403000044030000440300002c
:1000b800440300004403000044030000440300001c
:1000c8003c340000440300004403000044030000e3
:1000d80044030000440300004403000044030000fc
:1000e80044030000440300004403000044030000ec
:0800f800440300004403000072
:020000040000fa
:1001080044030000440300004403000044030000cb
:1001180044030000440300004403000044030000bb
:10012800440300004403000044030000e0330000df
:10013800440300004403000044030000440300009b
:10014800440300009a0100004403000076320000d6
:10015800440300004403000044030000440300007b
:10016800440300004403000044030000440300006b
:10017800440300004403000044030000440300005b
:100188007002000044030000440300004403000020
:10019800440300004403000044030000440300003b
:1001a800440300004403000044030000440300002b
:1001b800440300004403000044030000440300001b
:1001c8003c340000440300004403000044030000e2
:1001d80044030000440300004403000044030000fb
:1001e80044030000440300004403000044030000eb
:0801f800440300004403000071
:020000040000fa
:10020000cfa720000eff20000e0188000000000094
:10021000000020000000e000020032000001200089
:10022000200288000c000700a0f922000100200035
:1002300011000700000020000000e0000200320072
:1002400000000200000000004a1f02000000000041
:100250000040da000000fe004440a900c004200075
:100260000000e0000300320000002000a001880030
:100270004440a8000000060091018800800078003a
:100280000000eb0015003700e280400032a0b4000f
:100290009101ba00e280400032a0b4009102ba009d
:1002a000e280400032a0b4000002eb00472bde00e9
:1002b000f507b200602ce10004003a000059eb00a1
:1002c0008301e900fdff3e00040037006128e100e2
:1002d000010032000082eb00040007001101ba00a7
:1002e0000200e000e8ff3a00000006003159ba00c1
:1002f0008301e9000c0032002159ba008301e900b2
:10030000080032000400e00003003a00e2804000f0
:1003100032a0b400f5ff370011d9ba008301e9001b
:10032000faff3a008100e800e180400032a0b4000a
:10033000000006003600f800809fbe00829fbe00cd
:10034000849fbe00869fbe000000fa008520a900a1
:1003500094108000044278008000eb000440780094
:10036000831807000080fa004f03be004f02be0052
:100370004f01be004f00be003600f90000400600ed
:100380000400fa00008fbe000de2a9001e01be00ad
:10039000002d210031012000ac0207000002be0048
:1003a000040278000402e900a41088000cc2a9002d
:1003b0000ce2a9000ca2a900641080000410a100a6
:1003c0000420a100641088000c02a9000d42a800be
:1003d000741080000460a1000470a10074108800f3
:1003e0008520a900c40480000440a1000450a1009d
:1003f0000460a000c40488008d20a8000de2a800bd
:100400000f42a8000080fa00000006000400fa0075
:10041000008fbe001e01be0000242400f100200059
:100420008a0207000002be00040278000402e9000c
:10043000a41088000080fa00000006001400fa00f2
:1004400000579800110f98000e5290000402fb0014
:100450009e0a9000851f7800841f7800248329005d
:10046000841f78000e007800e9020700e687570035
:100470000e007800020007000080fa00000006006d
:100480000200fa00000f78000a00370075108000a3
:100490000420200004826200e00f520005003a00b0
:1004a0001e027800144278000402fb0084108800c9
:1004b0001e0fe8001e02780014427800e04f520040
:1004c000f2ff3a000080fa00000006000000fa0087
:1004d000a0832900eaff07000080fa000000060060
:1004e0003600f800809fbe00829fbe00849fbe0041
:1004f000869fbe000000fa008700a900e41080007b
:100500000442780011002000044078001818070009
:100510000080fa004f03be004f02be004f01be0034
:100520004f00be003600f900004006000400fa004b
:10053000008fbe0017e2a9001e01be00002d2100a1
:1005400031012000410207000002be0004027800d1
:100550000402e900f410880016c2a90016e2a900fe
:1005600016a2a900b41080000410a1000420a1006c
:10057000b41088001602a900c41080000460a10015
:100580000470a100c41088008700a9000405800041
:100590000400a1000410a1000420a00004058800ac
:1005a0008f00a80017e2a8001942a8000080fa00f6
:1005b000000006000400fa00008fbe001e01be000d
:1005c000002d210031012000200207000002be00a2
:1005d000040278000402e900f41088000080fa00a8
:1005e000000006001400fa0000579800110f980050
:1005f0000e5290000402fb009e0a9000851f7800b6
:10060000841f7800c4832900841f78000e007800be
:100610007f020700e68757000e00780002000700ff
:100620000080fa00000006000200fa00000f7800c7
:100630000a003700c51080000420200004826200f8
:10064000e00f520005003a001e02780014427800c4
:100650000402fb00d41088001e0fe8001e02780080
:1006600014427800e04f5200f2ff3a000080fa0096
:10067000000006000000fa0040842900eaff07009d
:100680000080fa00000006000040da000000fe00d2
:100690001004b100070035009001b10004003400df
:1006a0007000b100030035009001b10001003c0072
:1006b00010000500000005006900e100040035009d
:1006c0006d00e100030034000002b10001003200bf
:1006d00000000500100005001004b1000300350003
:1006e0009001b10001003c00100005000000050071
:1006f000800078001104b100030035009101b100c1
:1007000001003c000050a000000006000a00fa00b2
:10071000e00f500027003a00d4538000e10f520050
:1007200006003200e7212000c6212000852120009c
:1007300064212000e08f530004003a00472120008c
:1007400026212000e5202000c420200000002800f1
:100750001400600003003a00800b780007002800b6
:10076000148a7300020278000c0037008703e90046
:10077000950178006180610002003a00e08f53002b
:10078000faff3a0015007800e1036000070032002c
:1007900096037800875878000402e900e00f5200c1
:1007a00002003200070a2000f1ff37000400510068
:1007b0000800370024002000b4bf9f00c0bf9f0086
:1007c000d1bf9f00e2bf9f006a805700a2080700c8
:1007d0006fb897000080fa00000006000a00fa00d7
:1007e000e20f500022003e00d4538000e10f52007f
:1007f00006003200e7212000a621200084212000ed
:1008000065212000e08f530004003a0047212000ba
:1008100006212000e4202000c52020000000280040
:100820001500600003003a00800b780007002800e4
:10083000958a7300054020009482620001003a000e
:1008400014a0a0008202780006003700940378000c
:100850000710b200fdff3200b103fb00070b780068
:100860008502e900e08f5200f8ff3a0008003700e7
:1008700034002000b4bf9f00c0bf9f00d1bf9f00c5
:10088000e2bf9f006a805700750807006fb99700a4
:10089000020078000080fa000000060003f0a200c9
:1008a000889fbe008a9fbe008c1f78001b01070036
:1008b000220133006450e1004f0032006420e10067
:1008c0005200320003826c0007003b000905d00093
:1008d0000306d000820f54000c065d0002003900b0
:1008e00002003200890178000306780085825500f5
:1008f00004003d000003fd008103fd008502ea00c5
:100900008b854200840f720002003b0060001000e3
:10091000e08018006011b8000005eb007a28e100c3
:100920000a00390006007800c75ddd00f707b20055
:10093000878075002d003700828171000a017800e0
:10094000610560008180d1000080d3008502e9004c
:10095000f9ff3b00060440008784480002003b008a
:1009600060041400e0841c000988a3000700320022
:100970008a81710082817100610164008904d10063
:100980000884d3008b05e800170037000978a3001e
:1009900013003a000b00e000130034008b05e9005f
:1009a0000804440089844c000a4474000978a300b8
:1009b0000d003a000b00e000070034008b05e90051
:1009c0000804440089844c0001003a000b00200018
:1009d0000978a300f7ff32000001eb0002003700a6
:1009e000828171000a017800910007000cf0a700d5
:1009f00001f0a000da0037006420e10002003a00b4
:100a0000838f6c00da0033000801be000200be00d4
:100a1000d3003700889fbe008a9fbe008c1f7800dd
:100a2000be000700c500330003866c006450e1007f
:100a30002e0032006420e100330032006150e100fa
:100a40002f0032006120e100310032008585550021
:100a5000eb07b00009002000080420000500370063
:100a60000804440089844c000a0031000603430056
:100a700087834b000001530081815b00f8ff330046
:100a80000203be000800a0000804440089844c0052
:100a9000f6ff3900c639dd00830173000100320022
:100aa000130020008904d1000884d3000998a30012
:100ab000050032000800a7000300a0008904d1004f
:100ac0000884d3008b05e8008904d1000884d30092
:100ad0000001eb000281d2005500070001f0a100e7
:100ae0000cf0a70001f0a0009d0037006420e10099
:100af0009f0032000801be000200be00f7ff370071
:100b00006120e1009a0032006000b800f3ff370076
:100b10000000200001f82700f0ff3700140020003b
:100b2000da003700f4ff2f00d80037000001be00c4
:100b3000650007000470a70003f0a1006509b1007b
:100b4000160032000d0035006828e100060035006f
:100b5000f0ff2f00f1ff27000300e00013003b002f
:100b600001002800000005000000400081804800ce
:100b70008502e900fcff3a0008003700f88f4200c8
:100b800002003c008000eb00000005008100d10065
:100b90000080d3008502e800fcff3a000300e0007b
:100ba00002003b0060001000e0801800000006001a
:100bb0000001be00440007000470a70003f0a1007c
:100bc00003f8a30013003a006509b10010003200d9
:100bd000090035006928e100020035000100280005
:100be0000000050000004000818048008502e90007
:100bf000fcff3a0000000600f88f420005003500b7
:100c00008100d1000080d3008502e800fcff3a009b
:100c1000000006008000eb00000005004f89de00a8
:100c200082017800b40037006011b800c2003700bc
:100c300081002000618055000b003d000b0020006a
:100c400061fe2f000100e1001d003400828171006f
:100c5000610164008904d1000884d3000000e80029
:100c6000faff3a0071002000610064000300700088
:100c7000020060000900320061044400e0844c007e
:100c80000988a500050032008b05e8006808e1002e
:100c900002003a008904d1000884d300f20f20003a
:100ca0000258e10005003d00c75ddd00f907b20014
:100cb0008980750008007800000006000bf8270006
:100cc0008b00780000000500c70ade00f107b200c3
:100cd000f50fb20008003200e1cf420002003200fe
:100ce0000170a00024000500810f70000100320097
:100cf0000408050044000500810f700002003a005e
:100d0000140005008502e9000000400081c0480091
:100d1000fcff3b000170a000240005000004be00a1
:100d2000e9ff07000003be000405be000200be008c
:100d3000e5ff0700844f7500000006000200be00ba
:100d40006450e100050036006420e1000200360036
:100d50000968a30001003a000800be000160a0007d
:100d60004f0678004f05be004f04be00000006008d
:100d7000f0ff2f00f1ff2700f9ff3700889fbe002a
:100d80008a9fbe008c1f7800e4ff0700ebff330052
:100d900003866c006450e100240032006420e1000e
:100da000270032006150e100220032006120e100a2
:100db000210032008b854200eb07b1000134b800fe
:100dc000003ab8000804420089844a00013ab80099
:100dd0000030b8008880400009014a000400330058
:100de0000000400081804800020149008b05e900b5
:100df000c909dd00830170000100320013002000ea
:100e0000c814de004814dd004709de001200b200fd
:100e1000c808de000884700085ff070001f0a1000b
:100e20000cf0a70001f0a000cdff37006120e10029
:100e3000cfff32000801be000200be00f7ff3700fe
:100e40006150e100fcff3a00c9ff37006022b800a2
:100e5000060220000000d0008180d2000482d2006f
:100e60008582d2000000a0000202520083825a0054
:100e7000030031000202420083824a000000a10008
:100e80000603e900f3ff3a0000000600889fbe0059
:100e90008a9fbe00841f7800a0ff07004f007800e3
:100ea00011003300f0ff2f00838f6c0006003b0021
:100eb000040565000a00a7000800370009f0a60035
:100ec0001000200008003700820f5400838f5c0060
:100ed000030039001000200001003e000000200047
:100ee00009f0a7000000ea004f05be004f04be0055
:100ef0000000e00000000600881f7800030478006e
:100f00000300e00007003d0060001000e0801800d2
:100f100060011900e081190002003b0001f02d0082
:100f2000030037000400070008f0a70001f0a0004c
:100f30004f04780000000600889fbe008a9fbe0014
:100f400000827000040271000482710026003200e9
:100f50000004be000200be006011b8006b09200052
:100f6000950220000182cf000a0039000541b1003e
:100f70000082cf00070039000541b1000982cf008f
:100f8000040039000541b1000882cf00010039009a
:100f90000541b10005425200120032000a003b0038
:100fa00082817100610164008100d1000080d30062
:100fb0008984d3000884d3008b05e8000442e8004c
:100fc000f7ff3a00070037000804440089844c000a
:100fd00000004800818048008b05e9000442e900d8
:100fe000f9ff3a0012ff07004f05be004f04be0094
:100ff000000006000002780002003700315a780035
:101000000201e900e00f5100fcff3a000000060079
:101010000c00fa00889fbe0000047800f4ff27004f
:10102000d4bf9f008004eb0099bf9f0088bf9f0042
:10103000a8bf9f00240c2000b4bf9f0078815700f8
:10104000cfb0970070805700930107000fba970048
:10105000094a78000fba9700080052004f04be00fa
:101060000080fa00000006000c00fa00a0bf9f00fc
:10107000c0bf9f00e6050700b0bf9f00f0bf9f0004
:10108000140c2000d4bf9f0074815700efb097006c
:101090006c805700340007000080fa000000060052
:1010a000881f7800c05380001405070000047800f2
:1010b0000800780080fd0700e00f5000f9ff3a00bb
:1010c000e10f440003003200c153800008007800a3
:1010d000d60507004f04780000000600889fbe0078
:1010e0008a1f7800000478008144780002057800a7
:1010f00004fd2f0008024200e90f520002003e00ea
:10110000040478000f0037000800780072fd070023
:10111000e00f500005003200e00f550003003200e0
:101120000800780072fd07000004780008007800cd
:1011300057fd070000c2eb00e00f50000600320030
:101140007805b1008984fb0000c2eb00890f5400d0
:1011500001003d0008427800044078004f05780007
:101160004f04be0000000600f0874700889fbe00c5
:101170008a9fbe008c9fbe008e1f780081bf9f009b
:1011800002077800c05388000002eb00d4b79f002c
:1011900004447800350137008fba97008502e800d3
:1011a00085bf9f008985fb000b00780042fd07008a
:1011b000e00f500002003200b9ff07002b0137009a
:1011c00054c2b30084cf54001c013a00804478001c
:1011d00025c0b300004578000fb897000546780099
:1011e00080057800040037004cc0b30001003700d0
:1011f0002cc0b3000b0078003b42780095c6b300ca
:10120000854f5200960032001d003e00e6c252009b
:10121000854f52006a00320012003e00f7c25200b1
:10122000854f52002f00320006003e00e04f520072
:10123000aa003200a5c2b300854f520074003a00e4
:101240002600370085c5b300854f520070003a0074
:101250009cef9f008bbf9f0015002000d5b79f001b
:101260001c00370045c6b300854f52007c00320099
:10127000e4c24200854f520065003a00dcff3700af
:1012800035c7b300854f52001a00320007003e00f8
:10129000e7c25200854f520012003200e3c2420002
:1012a000854f52005a003a007100370055c7b3000d
:1012b000854f52006a003200e3c24200854f52005f
:1012c00053003a009cef9f008bbf9f000002eb0091
:1012d000d4b79f000bc1b300680037000a45e8008f
:1012e000c4ff3700e24f5600bfff32008cc0b3008e
:1012f000c0ff37008bbf9f0069ff0700e04f55001c
:1013000002003a004e027800e4b79f00c05380000c
:101310007a04070080057800e18f450014003a0048
:101320000b007800ce0037008fba97001502fb0043
:10133000848f550005003a000c027800e4b79f0046
:101340008502e80085bf9f0017003700e04f550079
:1013500001003a000b5e78008944e9000d0032007c
:10136000c053800065040700800578000100370045
:101370006fb697000b02e800e10f5200080036003c
:101380000b007800ccfc0700e00f5000e6ff3200b5
:10139000030037000c027800e4b79f00020037001a
:1013a0008c027800e5b79f00e04f5500af003a008f
:1013b0000844e8006fb297000a4a7800ab00370093
:1013c0008bbf9f00e04f550003003a000844e8003f
:1013d000ce05780001003700efb59700c0538000bc
:1013e00046040700e10f40009d003200e04f550029
:1013f00001003a00805d78008944e9004240a9007c
:10140000f6ff3c000b027800e4b79f00970037001e
:101410008484fb0004fd2f0009024200e90f520002
:1014200009003e0016040700804478000b02780093
:1014300084057800b402fb000503b100e98f520077
:10144000fbff36006bff37008bbf9f00c05380004f
:101450002a040700808f54007c003a008300370084
:101460009cef9f008bbf9f00abc0b3000300370011
:101470009cef9f008bbf9f008bc0b30008ff07004d
:10148000c05380001d040700f0b79f008042eb00ae
:1014900085ef9f00d402200080027800848f5200e4
:1014a00005003a00c053800014040700f0b79f0005
:1014b00014c0b30084ef9f005fb197008b407800a9
:1014c0007fb0970005ff0700e14f40000b003a0096
:1014d000c15380007fb09700d4040700e04f540050
:1014e00066003a00c4538000340090007000600031
:1014f000630032000080eb0061003700040320002d
:10150000ffb29700848f520015003a00c05380004c
:10151000fa03070084072000840f500004003a00fb
:101520005fb29700e00f5200070032000a00370058
:1015300084052000840f500007003a00dfb29700b6
:10154000e08f520004003200c0538000eb0307001c
:10155000f0b79f0002003700c1538000b3040700ba
:101560006066b8000b82fb0005002000a4b79f0056
:10157000b5b79f002fb19700bfb197000c00be0018
:10158000390507000006be005fb197008b40780068
:101590007fb09700d1fe07000080fb000100200013
:1015a0000006460081864e008944e90008003200aa
:1015b000c0538000d1030700f0b79f005fb19700d0
:1015c0008b407800c5fe0700e14f4000e9ff3a007c
:1015d0005fb197008b4078007fb09700bffe070097
:1015e000e14f400003003a00c15380007fb09700f4
:1015f0008e0407008fea9700e0cf5200020032000d
:1016000060061600e0861e00e04f550017003a0005
:101610000844e8000e87e9001fea9700e44f5200f3
:1016200003003a001e0278000c8abe000f0037004b
:101630001e0278000c0a78000c003700c0538000ae
:10164000ae030700808f550008003200e10f400014
:1016500003003200c1538000740407000700370004
:10166000e04f540005003a00050037000fba97001c
:1016700094447800e0cf5400c7fe3a000880fb0095
:101680004f0778004f06be004f05be004f04be0056
:101690000f01b10000000600ef03b000889fbe00fc
:1016a0008a9fbe008c9fbe008e1f78008006780047
:1016b000d1af9f00a2b79f000007eb006403370083
:1016c000dfa897008100e800d1af9f0054c2b300ab
:1016d000844f500006003a00010278000006eb003b
:1016e00001c3b30000c2b300b7c2b3000e0037009d
:1016f0003d0290000404b200040032001d02780094
:10170000004a7800840ee800050037000000fb0066
:101710008d007800fa030700e10f40004c0332000f
:101720000e07e8004a03370084027800344378004b
:10173000d2c2b300824f53000900320005003c00c2
:10174000804f530008003200874f53000c003a00ce
:1017500007003700814f530009003a0006003700a8
:101760000c30a000f0ff37000c00a000eeff3700a7
:101770000c10a000ecff37000c20a000eaff37009f
:1017800062026600010032000c00a10068026600df
:10179000010032000c20a1000602fb000403b1008e
:1017a000e90f52000c003e00050378000002eb0038
:1017b0006a22b900b603fb000703b10004824300ac
:1017c000860278009603fb000703b100e98f5300ff
:1017d000f7ff3600080037000002eb00a7c2b30095
:1017e000874f530004003a00afb1970043027800de
:1017f000a3b79f008502e8000003eb0096b79f00a7
:10180000e6c2b300954f13000c003a000ce0a000b4
:1018100064435300d54f13000300320005037800e2
:101820000000eb0009003700afb3970047047800d1
:10183000a7b79f0098b79f008502e80005037800ce
:10184000090037006a00b900008043008602780072
:10185000b603fb000703b100e98f5300f9ff360020
:1018600090b79f00f5ff3700b6427800d6af9f00d3
:10187000cac6b3008acf5200250032000f003c00d8
:1018800036c6b30086cf52009d00320004003c00f3
:10189000e0cf5200f30232006b4353000f003700d9
:1018a00046c6b30086cf520017003200654343009e
:1018b00086cf5200b0003a001300370036c7b3009d
:1018c00086cf52002000320007003c0064435300e2
:1018d00086cf5200150032000643e80086cf520042
:1018e000a5003a001400370056c7b30086cf520057
:1018f000a80032006343430086cf52009e003a00a6
:10190000e5779f000e003700e5779f00a3003700c2
:10191000f0036600050120000100320005002800e8
:101920008c82720005067800cfff3700e5779f00b4
:101930000c60a00099003700e5779f000c50a000d4
:101940000c70a00095003700e5779f00afb59700b9
:10195000cb027800abb79f00b5b79f00e08f520075
:1019600002003a00419a2000b1b79f003fb39700b0
:101970008002eb00010037008502e800e6c37a0030
:10198000e0cf5300fcff3a00c5b79f001fb197009e
:10199000e00f510005003200cfb19700830f5100d6
:1019a0000200310082027800c5b79f00cfb29700d5
:1019b0000004eb00850f52000100360005045200c0
:1019c0006806660009c2b3000f0032002900370024
:1019d0003d0290000404b200040032001d027800b1
:1019e000094a7800840ee800050037008d00780071
:1019f0000002200042030700e10f40000100320016
:101a00000e07e8000804e900e00f5400f0ff3a0078
:101a10000084eb0017003700bd0290000504b200ff
:101a2000090032009d037800880278003543780071
:101a3000864b7800870ee80005047800e04f5300dd
:101a40000a003a0010003700880278003500fb00d9
:101a5000050478008d00780084bf9f0028030700ec
:101a60000fba9700e10f4000070032000e07e800b0
:101a700005003700080278003fb49700cfb4970004
:101a80005fb59700efb59700890278008504e900fb
:101a9000e08f5200e0ff3a00b8b79f00c9b79f003f
:101aa000dab79f00ebb79f000404780009c2b300c7
:101ab000e00f56000f003a00650237003d0290002b
:101ac0000404b200040032001d027800094a7800c4
:101ad000840ee800050037008d0078000002200029
:101ae00007030700e10f4000010032000e07e80085
:101af0000804e900e00f5400f0ff3a0054023700f8
:101b0000afb0970041047800a1b79f00cfc4de00ba
:101b1000090578008a0578000800be000a01be00a9
:101b20004800de00c80add0000807200e0779f00f8
:101b30007003660009003200e04f500007003200d9
:101b4000e14f400005003200f0779f00887f9f0042
:101b500026002000c6b79f0003003700f8779f00db
:101b600017002000c7b79f0078fb2f0008844700ac
:101b7000b8b79f0085ff3700e5779f0069fb2f000e
:101b800089844700b9b79f001a002000cab79f0098
:101b90007eff3700e5779f000c0cb3008c027800c5
:101ba000050cb2003b003a00e00f560005003d0076
:101bb000afb297004501be004500be00a5b79f002b
:101bc0000f003700f0026600120032002fb49700b9
:101bd0004803be00a8b79f00f69f9f0087a79f00fd
:101be00098029000cfaade0095a79f00a5a79f00ae
:101bf0007f9897008fa097001fa19700afa1970033
:101c0000b0b79f00c1b79f00d2b79f00e3b79f0056
:101c10000b003700afb09700c1027800a1b79f005a
:101c200005047800cfc4de00090578008a05780035
:101c3000b8b79f00c9b79f00dab79f00ebb79f0006
:101c40003fb09700cfb097005fb19700efb197001a
:101c5000e00f5000e08f5800e00f5900e08f59006e
:101c600032003d003c00b3006000b8006011b800d5
:101c70003fb49700cfb497005fb59700efb59700da
:101c800008045000898458000a0559008b855900c2
:101c900022003700e00f560005003d00afb297006c
:101ca0004501be004500be00a5b79f000f003700ec
:101cb000f0026600120032002fb497004803be0005
:101cc000a8b79f0096af9f00a7af9f008004eb00ce
:101cd000b9af9f000005eb00caaf9f001fa8970097
:101ce000afa897003fa99700cfa99700b0b79f0072
:101cf000c1b79f00d2b79f00e3b79f000b0037002a
:101d0000afb09700c1027800a1b79f00050478002a
:101d1000090020000a0020000b002000b8b79f0037
:101d2000c9b79f00dab79f00ebb79f009fb4970039
:101d3000e08f54000d003a001a0020009ab79f006f
:101d40003fb09700cfb097005fb19700efb1970019
:101d5000e00f5000e08f5800e00f5900e08f59006d
:101d6000020032008000eb0091b79f000c01780068
:101d7000020cb20082b79f0005042000850f5100bd
:101d80003400320003003c00e00f51000800320034
:101d900048003700050820008fb19700858f51005b
:101da00014003200050c2000858f510041003a00dc
:101db000469b200015c0b3003600be003601be00b1
:101dc0003fb49700cfb497005fb59700efb5970089
:101dd0000040e10001c8e10002d0e10003d8e100c9
:101de000330039008542e800f4cf5200f2ff3a0098
:101df0002f00370015c0b3000001200001002000b3
:101e00006011b8003fb49700cfb497005fb597005a
:101e1000efb597000040e10001c8e10002d0e10009
:101e200003d8e10022003900490020000000d00062
:101e30008180d2000281d2008381d2008904e9002e
:101e4000faff3a008542e800f0cf5200edff3a0079
:101e50001700370015c0b3008000200001002000eb
:101e60006011b8003fb49700cfb497005fb59700fa
:101e7000efb597000040e10001c8e10002d0e100a9
:101e800003d8e1000a003900390020000000d0002a
:101e90008180d2000281d2008381d2008904e900ce
:101ea000faff3a008542e800f5cf5200edff3a0014
:101eb000e5779f006f7597008a02fb009fb597003a
:101ec0008b8f520002003d00eb779f00040037002b
:101ed0001fb09700850f500001003d0095b79f008f
:101ee000e00f520003003200e302660001003200fe
:101ef0000402e900050024008502660006003200a5
:101f00009fb09700810f520002003400010252007e
:101f1000010037000002eb006f7197008202fb00a6
:101f20008001eb00f3af9f00850f520002003400e8
:101f300085025200f5af9f00640266003b0032004c
:101f4000e202660061026600e08f5200110032007a
:101f5000bd0290000504b200080032009d02780026
:101f6000b6c2b300e00f52000100320006c3e80021
:101f7000864a7800850ee80015003700b002200080
:101f8000e00f5200010032000080e8008d00780070
:101f90000c003700e00f52000e0032003d029000ae
:101fa0000404b200050032001d02780005c2b3002f
:101fb000054a7800840ee800050037008d0078009f
:101fc00000022000ce010700e10f400001003200b6
:101fd0000e07e8007faa9700e00f52004f00320082
:101fe00008c3b300840478003d0290000404b200ea
:101ff000040032001d027800084a7800840ee800d0
:10200000050037008d00780000032000bc010700a8
:10201000e10f4000010032000e07e8008904e900ea
:10202000f1ff3a00f9af9f003c003700ffaa97008c
:10203000e08f5200140032006802660012003a007d
:1020400008c2b300850478003d0290000404b20089
:10205000040032001d027800084a7800840ee8006f
:10206000050037008d00780000022000a401070061
:10207000e10f4000010032000e07e8008904e9008a
:10208000f1ff3a00f9af9f00e202660061026600cc
:10209000e08f520011003200bd0290000504b20032
:1020a000080032009d027800b6c2b300e00f520073
:1020b0000100320006c3e800864a7800850ee80079
:1020c00015003700b0022000e00f5200010032007e
:1020d0000080e8008d0078000c003700e00f52000f
:1020e0000e0032003d0290000404b20005003200f0
:1020f0001d02780005c2b300054a7800840ee8008e
:10210000050037008d007800000220007c010700e8
:10211000e10f4000010032000e07e8001fb39700f6
:102120000602e900c223dd00c7a79f006323b900b0
:1021300006047800b8a79f004322dd00c59a20005e
:1021400085024200e5af9f00f0046600e99f9f0012
:102150000c0578000a02b200da9f9f00a300370046
:102160009fb597008b05e9009bb79f000fb09700c4
:1021700001042000810f50007300320003003c0076
:10218000e00f5000080032007e00370004082000f5
:102190000fb19700840f510056003200040c20004c
:1021a000840f510077003a00e00f56001f003d00f9
:1021b000efa997003304be002305be000802be004d
:1021c0000a03be003fb09700cfb097005fb1970001
:1021d000efb19700d5020700e0779f000000fb00f9
:1021e000cf80de0001017800820178000802be0085
:1021f0000a03be00360307003fb29700cfb2970034
:102200005fb39700efb397000002520081825a003b
:1022100002035b0083835b00b4b79f00c5b79f00d8
:10222000d6b79f00e7b79f002e003700ef9a9700c0
:10223000e08f5200220032003fb29700cfb29700e9
:102240006fab97003604be002605be000801be0035
:102250000400be0084bf9f00f5b79f00fbfa070093
:10226000e0779f000000fb00cf80de000801be0089
:10227000fd0107000fba9700ffb29700000452005b
:1022800081845a00d8a79f00e9a79f008004eb0033
:10229000f9a79f000005eb008aaf9f005fa09700a1
:1022a000efa097007fa197008fa99700b0b79f007c
:1022b000c1b79f00d2b79f00e3b79f000900370066
:1022c000efa89700110278003fb1970011000900b4
:1022d0000481d800a4002000110009000480d80067
:1022e000e1779f00ef7197000343b000e3779f0011
:1022f0002400370034992000df9a9700e08f5200c5
:1023000001003200249820003fb09700cfb0970022
:102310005fb19700efb197004fa397000603e90064
:10232000050033008301d1000281d3008180d300f6
:102330000080d300f9ff37006f0060006440780030
:10234000e0779f000f0037003fb29700cfb29700b1
:102350005fb39700efb397003fa497000804e9002c
:10236000050033008703d1000683d3008582d300a4
:102370000482d300f9ff3700674262000443b000d3
:10238000e4779f003d0290000404b2000700320091
:102390009d0278006f729700844a7800850ee800ed
:1023a000e04f520007003a0007003700ef74970033
:1023b0000900fb008d007800d1000700e10f40000c
:1023c000010032000e07e8004fa597006405550094
:1023d000caa79f00bfa59700e3855500bba79f0034
:1023e0006fa8970068005000e0af9f009fb0970073
:1023f000e08f50005aff3a00680666001400320071
:102400007fa99700e00f51001100340008c2b3000b
:10241000820478003d0290000404b20004003200ff
:102420001d027800084a7800840ee8000500370095
:102430008d00780000022000b1000700e10f40008d
:10244000010032000e07e8008904e900f1ff3a00bc
:10245000dfa9970013407800e0779f00e04f50001d
:1024600097fc3a000e0078004f0778004f06be0038
:102470004f05be004f04be00ef03b1000000060090
:1024800006c2b3000002780004007800b042780071
:1024900086cf5200fbff3200e9cf5200f9ff320035
:1024a000d6c2b30086cf520003003a000002780083
:1024b00016c0b300050037000043eb00b7c2b300fd
:1024c00087cf520001003a00000278000000eb00c4
:1024d000020037006a00b90000804200b402fb002d
:1024e0000503b100e98f5200faff3600e04f5300b8
:1024f000010032000000ea0000000600881f78009a
:102500000004780038029000f1026200e18f52006e
:1025100006003a00840278000520b200080032006c
:1025200098029000e08f52000500320038029000bf
:102530000440a000340498000080eb002000370025
:102540000490a1003404980018029000e00f52009b
:10255000070034000402e90014049800180278000f
:10256000944278000580fb00040ce8000500370069
:10257000380290000404b200ecff3a000800780032
:1025800011000700380290000408b2000c003a0065
:10259000fa0f500008003a0028029000e00f5200a5
:1025a000e2ff3200180290000402e80014049800d0
:1025b000180ce900ddff3700ed0f5000e2ff32009c
:1025c0004f047800000006000200fa00889fbe0059
:1025d0008a9fbe00000478000002eb0014049800fb
:1025e00038029000610262000080eb00400032007f
:1025f00024a720008042eb0094cf12000f0032008d
:102600000ba72000c9fd2f008b8444002a10200056
:10261000390290002410b2008a0f520002003a00e2
:1026200009007800a0000700ec8444008b8f540060
:10263000f7ff3a0024a72000004aeb005801900061
:10264000e00f51000e003a00120498001200200022
:10265000ea805700480090002cf80700e10f500076
:1026600003003a006ff297000480fb00200037005f
:10267000380290000440a000340498001300370092
:10268000a80090004800900020f80700100498006f
:10269000e00f500003003200e10f40000d003a004f
:1026a00003003700380290000440a0000200370009
:1026b000380290000403b30034049800a80290008c
:1026c000050c78000002eb00140498000080eb0079
:1026d0000700370028029000040c78000000e90091
:1026e00010049800944278000580fb00040ce80078
:1026f0004f05be004f04be000080fa000000060037
:10270000889fbe000104780038029000e202620057
:102710008084eb003b003200040378000620b20006
:102720009802900002003a00e08f520035003a0013
:102730000490a0003404980080047800f90fb200df
:10274000e08f520002003a00a8029000050c7800c9
:10275000ea8f540005003a000408b20003003a0072
:1027600088007800d0002000e5ff070018029000e4
:10277000d8029000850f52000b0032000402e800de
:102780001404980018027800094a7800040ce80044
:1027900015c0b30024a72000054a7800ea8f540032
:1027a00018003a00050037008800780009407800da
:1027b000670007008004780012003700380290009c
:1027c0000410b2000f00320018019000a800900021
:1027d0004800900001f8070018029000840f500094
:1027e00004003200380290000403b300340498005f
:1027f0008084eb000002eb00140498002802900093
:10280000040c7800090078004f04be0000000600a8
:10281000000278008042eb00b4cf1200fdff3a00c6
:102820000080ea000000420000000600e10f4000c6
:102830001c003200310290001420b200e10f52005f
:1028400015003a0021039000e00f530012003200ff
:1028500011029000d1029000850f5200100032004a
:1028600091027800868f520002003a008508e80045
:10287000020037000402e800940098009102e90089
:1028800085087800310290000404b20005003a0087
:10289000804a7800000006000080eb00000006007f
:1028a0000080eb0000000600881f7800000478001c
:1028b00038009000000278001420b200e10f5200ae
:1028c00005003a000002eb00140498002802900072
:1028d000040c780019003700800278002520b2002f
:1028e0000000eb0024202000848f520016003a00e4
:1028f000a8009000808f5000130032001801900053
:10290000800f51001000320048009000b3f707001c
:1029100018029000840f500003003200380290002b
:102920000403b300340498000002eb001404980080
:1029300028029000040c7800380090000002b200d9
:10294000010032000080eb004f0478000000060018
:102950000200fa00889fbe00a0ff9f0001047800db
:1029600038029000840278000504b20002003200b0
:102970000000fb0035003700e202620005003a006b
:102980000403b30034049800150498000080eb00a1
:102990002e003700d8049000e08f540006003a0063
:1029a00012002000e6805700480090008bf70700d7
:1029b0001904980023003700a8029000e08f52000d
:1029c00008003a0055a7200025049800050c78005f
:1029d0002500200055049800150498000430a0003c
:1029e0003404980018019000a8009000480090005e
:1029f0007af70700280290008082eb001504980007
:102a0000affa9700054a7800040ce8002ffa970007
:102a1000ea4f52000b003a00380290000410b20056
:102a20000800320018019000a800900048009000b3
:102a30006af707000002eb0014049800a802900057
:102a4000050c78002ffa97000400fb004f04be002d
:102a50000080fa000000060000c0da000000060056
:102a600000c0da0000000600020ab900001bb9002d
:102a70000200b8008100420081004300000006000f
:102a8000889fbe008a9fbe003004be002005be00a5
:102a90000404440085844c0006054d0087854d00e4
:102aa0000898be000a90be000440e10005c8e1009d
:102ab00006d0e10007d8e1000200310068004000c4
:102ac0001008e8004f05be004f04be0000000600dd
:102ad0001000fa00889fbe008a9fbe000605be0057
:102ae0000404be003002be002003be00c4b79f0035
:102af000d5b79f00e6b79f00f7b79f0008025200c6
:102b000089825a000a035b008b835b0084bf9f00ad
:102b100095bf9f00a6bf9f00b7bf9f000498be004f
:102b20000698be00110020004fb29700dfb2970058
:102b30006fb39700ffb397000820e10009a8e100f8
:102b40000ab0e1000bb8e100010039008000eb00a1
:102b5000108810004f05be004f04be000080fa0030
:102b6000000006001400fa00889fbe008a9fbe0085
:102b70008c9fbe003f0007000605be000404be0097
:102b80000006eb00ccb79f00bcb79f00acb79f001e
:102b90009cb79f008cb79f000d0420004fb3970097
:102ba000bfb29700860343002fb29700e00f530097
:102bb00004003d003d0007000f004000b0ff07008b
:102bc00003003700390007000f004000c0ff070076
:102bd000cfb2970095bf9f00e08f520009003500eb
:102be0002b00070014002000050020006033b8000f
:102bf0000000720081807200020173008381730003
:102c00001c0007000c06e8008d0f5600e3ff3a0099
:102c10001fba9700e00f520005003d000802be00f9
:102c20000a03be0000fe2f000f00400094ff0700c3
:102c30004faa9700e00f520008003a000fb4970027
:102c40009fb497002fb59700bfb59700d8b79f00e6
:102c5000e9b79f00fab79f008bbf9f000c000700e9
:102c60004f06be004f05be004f04be000080fa00b4
:102c700000000600010007000000060090b79f005a
:102c8000a1b79f00b2b79f00c3b79f000000060026
:102c900001000700000006001fb09700afb09700ca
:102ca0003fb19700cfb19700000006004f2bde0028
:102cb00086837300a7b79f004f23de008582420002
:102cc0008682720095b79f00ffaa97004f2bde0007
:102cd000040242000602720084b79f006faa9700a8
:102ce0004f23de008582420086827200f5af9f008e
:102cf000e9ff07004f18de000402420000027200e4
:102d0000e4af9f00e4ff070000004000818048001e
:102d10000201490083814900d8ff07000802be0074
:102d20000a03be0000fe2f0000000600881f780086
:102d300018002000881f78008aff07008f87e900ad
:102d40004f04780000000600801feb0085ff07009d
:102d50008f87e90000000600889fbe008a9fbe00a2
:102d6000e00f5000e08f5800e00f5900e08f59004d
:102d70000c003d006044b8006055b80000005400ed
:102d800081805c0002015d0083815d0018002000ed
:102d90001500070008003d00180007000004eb00c4
:102da000050037000004eb000f00070002003d00a3
:102db0001200070018002000dcff0700e00f54009d
:102dc000060032006022b8006033b80000005200f4
:102dd00081805a0002015b0083815b004f05be00c9
:102de0004f04be0000000600e00f5200e08f5a00c2
:102df000e00f5b00e08f5b00000006006044b8005d
:102e00006055b8000402540085825c0006035d0032
:102e100087835d0000000600889fbe008a9fbe0079
:102e20008c1f7800e00f5000e08f5800e00f590031
:102e3000e08f59000d003d006044b8006055b800b7
:102e40000000540081805c0002015d0083815d0010
:102e50001c0020000820e10009a8e1000ab0e10000
:102e60000bb8e1000d003d00080037000006eb0044
:102e7000e00f5200e08f5a00e00f5b00e08f5b0034
:102e800006003d006044b8006055b80004025400dc
:102e900085825c0006035d0087835d00aaff070052
:102ea000e00f5600060032006022b8006033b80020
:102eb0000000520081805a0002015b0083815b00a8
:102ec0004f0678004f05be004f04be00000006000c
:102ed000889fbe008a9fbe008c1f78000006eb0012
:102ee000e00f5000e08f5800e00f5900e08f5900cc
:102ef00007003d006044b8006055b8000000540071
:102f000081805c0002015d0083815d001c00200067
:102f1000e00f5200e08f5a00e00f5b00e08f5b0093
:102f200007003d006044b8006055b800040254003a
:102f300085825c0006035d0087835d000c00a200b3
:102f40000c000700e00f5600060032006022b800b7
:102f50006033b8000000520081805a0002015b001b
:102f600083815b004f0678004f05be004f04be0012
:102f700000000600889fbe008a9fbe008c9fbe0096
:102f80000404b8000506b8008904460060854e00b8
:102f90000606b8000a054600e0854e000706b800a0
:102fa0008b054600040eb800890446000a854e00d1
:102fb000e0854d00050eb8000a0546008b854e00e1
:102fc000060eb8008b0546000416b8000a05460038
:102fd0008b854e000516b8008b054600041eb80010
:102fe0008b0546000800be000a01be004f06be0069
:0c2ff0004f05be004f04be0000000600ac
:020000040000fa
:102ffc00415400002b4e0000414d0000454900009b
:10300c006361000072750000730000000041000055
:10301c00542b0000504900004e34000030310000a9
:10302c0031000000415400002b42000041550000cb
:10303c00443700000000000025300000326400001e
:10304c00253000003264000025300000326400009e
:10305c000d0a0000000000003c2500006325000064
:10306c00346400003e0000000a0000003c25000013
:10307c0063250000346400003e0000000a000000dc
:08308c002564000000000000b3
:020000040000fa
:103094001600fa00000f9800110f9800220f9800f4
:1030a4002e0a9000841f78001e0a9000841f780066
:1030b4000e0a9000841f780024822900841f78005f
:1030c4000e007800d1f70700e88757000e0078005b
:1030d400eaf407000080fa00000006000400fa0089
:1030e400004f780011479800224798002e42900024
:1030f4000483fb001e4290008482fb009e43780000
:103104000782fb000601780085007800040078003f
:10311400dfff07000080fa00000006000400fa0048
:10312400004f7800114798002247980033479800d1
:103134001e427800e74f520048003e001e429000b5
:10314400e54f520045003e003e429000e04f5200e1
:10315400210032001e4278000480fb001e429000d1
:103164008483fb001e4278008480fb001e42900092
:103174000482fb006322b90004037800720ab900d8
:103184000402780084024300148020000482420078
:1031940014427800844278002e4290000482fb009e
:1031a400160020000432dd000442780004c27200dc
:1031b40004437800633ab900840378007202b900ca
:1031c40004027800848243001480200004824200b8
:1031d400064a7800210037001e4278000480fb0074
:1031e4001e4290008483fb001e4278008480fb0012
:1031f4001e4290000482fb006322b900040378009d
:10320400720ab9000402780084024300148020008a
:103214000482420014427800844278002e429000d6
:103224000482fb00160020000432dd000442780012
:1032340004c2ea0004c2620004437800633ab9009d
:10324400840378007202b900040278008482430087
:103254001480200004824200064a78000080fa00ac
:10326400000006000600fa00204798003147980045
:103274004247980053479800de4190004e41900029
:10328400be4090002e409000a4ff07000e02e8000c
:10329400840278000e027800be4190002e41900016
:1032a40011c0b3004e409000260007004e4090002d
:1032b40008020700004378009e4290001e427800f6
:1032c400de41900006417800854078000440780093
:1032d40092ff07000080fa00000006000400fa00d4
:1032e400004f780011479800224798001e4278004a
:1032f4008483fb001e4290000482fb006322b90019
:1033040004037800723ab90004027800840243008e
:103314001480200004824200144278008442780021
:103324002e4290000482fb00160020000432dd00cf
:103334000442780004c26200044078000080fa006d
:10334400000006000800fa00004f780011479800ba
:1033540022479800334798002407980035079800bf
:103364001e427800e14f520009003a002e029000fc
:10337400ae429000054a7800be4290001e42900082
:1033840004c24200be029000844a78002000370044
:103394001e427800e24f520009003a00ae4290000b
:1033a4001e42900004c24200ae029000844a78009b
:1033b4003e029000be429000054a78001400370097
:1033c4001e427800e34f520009003a002e0290009a
:1033d400ae429000054a7800be4290001e42900022
:1033e40004c25200be029000844a780008003700ec
:1033f400ae4290001e42900004c25200ae02900001
:10340400844a78003e029000be429000054a78004b
:103414000080fa0000000600ca00fa000082eb00f7
:10342400240798000082eb00340798000042eb0068
:10343400044f7800170037000042eb00144798004f
:10344400100037001e4278008483fb001e42900067
:103454000482fb006322b90004037800723ab900c5
:103464000402780084024300048020008482420025
:1034740000c2eb00844a78001e4290000442e80037
:10348400144798001e429000e54f5200edff3600ad
:103494001e4fe8001e427800e74f5200e6ff360058
:1034a4000042eb003447980004892000144278005d
:1034b400e14f5200040032000489200014427800d5
:1034c400e34f520020003a0034c0b300044f7800a8
:1034d4001800370024c0b3001447980011003700c7
:1034e4002e0290000402e800240798002e029000a7
:1034f40004024200040247006a0242001e4a7800a5
:103504002e02900004024200040247006b024200b3
:103514009e429000054a78001e4290000442e80052
:10352400144798001e429000e34f5200ecff36000f
:103534001e4fe8001e427800e44f5200e5ff3600bb
:1035440000000000720037000002eb00240798001e
:103554002e0290000402420004024700ea024200e4
:103564000042eb00844a78002e02900004024200dc
:1035740004024700eb0242000042eb00844a780058
:10358400630037002e029000040242000402470048
:10359400a44a9000054f78002e02900004024200d5
:1035a4000402e80004024700a44a9000154798006a
:1035b4002e0290000402e900240798001e427800bd
:1035c4008483fb001e4290000482fb006322b90046
:1035d40004037800723ab9000402780084024300bc
:1035e400048020000482420014427800e14f42002b
:1035f40033003a009e4278008583fb001e4290000f
:103604000482fb006322b90004037800723ab90013
:1036140004027800840243000480200004824200f3
:10362400be429000054a78000042eb00244798000f
:10363400200037002e4190009e4090001e407800ec
:1036440026ff070000427800e04f520016003a00bf
:103654003e0290000402e80034079800e9024700a3
:10366400680247009e4190001e41780011c0b300db
:103674002e40900033ff07000e4a9000be029000d7
:103684008582420085024700a506b000844a78007e
:103694001e4a9000be0290008582420085024700c7
:1036a400b506b000844a78002e4290000442e80037
:1036b400244798002e429000e34f5200ddff36006d
:1036c4002e029000e00f5200aeff3d003e0290003b
:1036d400e00f52000e0035003e4290000442e80024
:1036e40034479800a50620008e8242006a024700f3
:1036f4000206200085007800040078003cf60700ec
:103704003e029000240798000082eb0034079800e2
:103714002e029000e00f5200e9ff3d000080fa0005
:10372400000006000400fa00004f780011479800da
:1037340022479800334798002e4290009e4f520033
:1037440006003600be4290001e42900084cf520014
:1037540002003a0024c0b300130037002e42900048
:103764009e4f520006003100be4290001e4290005f
:1037740084cf520002003a000042eb000a003700f6
:103784002e4290009e4f520006003a00be42900026
:103794001e42900084cf52000200360014c0b300d1
:1037a4000100370034c0b300044078000080fa0000
:1037b400000006001400fa00604f9800714f980052
:1037c40002579800130f98000082eb00040f780052
:1037d4000042eb0024479800300037002e4190004f
:1037e400fe4890006e489000bcfe0700004278003e
:1037f400e04f520026003a00ed0247006c024700f9
:10380400fe4990006e49900011c0b3002e40900014
:10381400ccfe07004e4a90008483fb005e4a900071
:103824000482fb006322b90004037800723ab900f1
:1038340004027800040243008482e800048020002b
:103844000482420014427800e14f52000300320027
:103854000e529000e04f52000d003a001e0fe80097
:103864004e4a90009e0278008582420085024700fd
:10387400e4824200844a78005e4a90009e02780006
:103884008582420085024700e5824200844a78002e
:103894002e4290000442e800244798002e429000f3
:1038a400e34f5200cdff36000042eb00344798004e
:1038b40014c0b30024479800310037002e42900012
:1038c4000482fb00040242000402470044429000c8
:1038d4008483fb002e4290000482fb000402420019
:1038e4000402e80004024700444290000482fb0002
:1038f4006322b90004037800723ab9000402780024
:1039040084024300048020000482420014437800af
:103914003e4290000482fb0004024200040247007d
:10392400444290000480fb003e4290000482fb006d
:10393400040242000402e8000402470044429000ea
:103944000482fb006322b900840378007202b90088
:103954000402780084824300048020000482420030
:1039640014427800844f5300020031002e4290002c
:10397400344798002e4290000442e80024479800ff
:103984002e4290008482fb001e02e800848f5200c5
:10399400caff35003e4290000482fb00040242004c
:1039a4000402e80004024700c44290003e42900032
:1039b4000482fb00040242000402470044429000d7
:1039c4008541780004417800fe4890006e489000dc
:1039d40054ff0700004278009e0a9000844a780051
:1039e4000080fa00000006000800fa002047980052
:1039f400314798002207980033079800ae029000e0
:103a04000042eb00844a7800be4290002e429000af
:103a1400be01900012c0b3008540780004407800d5
:103a240064ff07003e409000ae4390003e029000c9
:103a340014437800e30247000e82e80080417800d6
:103a44000741780011c0b300064078003dfe07002e
:103a54003e02900014427800044f780016003700ac
:103a64002e029000144278000442e800ae02900056
:103a7400844a7800be4290002e4290008e01780065
:103a840012c0b300854078000440780049ff070065
:103a94003e409000ae4390001e437800e30247008e
:103aa4000e82e800804178000741780011c0b3001d
:103ab4000640780023fe07003e02900094427800fe
:103ac4001e42780084cf5200e5ff32000080fa00e5
:103ad400000006000200fa00004f78001e42780041
:103ae400e14f520002003a0034c0b3000b0037002b
:103af4001e427800e34f520002003a0014c0b300a3
:103b0400060037001e427800e04f520002003a00df
:103b140024c0b300010037000042eb0004407800e9
:103b24000080fa00000006000200fa00881f7800f6
:103b3400004f780011479800dd02a80050c0b30080
:103b4400ac060700dd02a900d642a80040c0b300bd
:103b5400a8060700d642a900d622a80010c0b300c8
:103b6400a4060700d622a900d602a8000040eb0054
:103b7400a0060700d602a90050c0b3005b070700e7
:103b840000447800480407000002780004427800ea
:103b940088417800044178009e4090001e407800df
:103ba400b0fd070010c0b3005007070000447800c0
:103bb4003d040700000278008000eb000400780058
:103bc4002c05070000027800044278008841780040
:103bd400044178009e4090001e407800a1fd07003b
:103be4000040eb0041070700004478002e04070062
:103bf4000002780011002000040078001d05070071
:103c0400000278000442780088417800044178007a
:103c14009e4090001e40780092fd07004f047800fb
:103c24000080fa00000006000400fa00004f78004b
:103c3400110798009e0090001e40780068f207006b
:103c44003e0a0700401f20002b0b07000700370027
:103c5400350a07009e0090001e40780060f20700bd
:103c6400360a0700401f2000230b0700290a07001b
:103c740000027800e00f5200f5ff3c000080fa00db
:103c8400000006000400fa00000f780011079800f5
:103c94009e0278000042eb00844a78009e02900065
:103ca4000042eb00844a78001000200077040700eb
:103cb4000080fa00000006000a00fa0020079800bd
:103cc4003107980042079800be0090002e00900033
:103cd400ecff0700ce0290000042eb00844a78001b
:103ce40014c0b3000002fd0090e8b7000002fd001c
:103cf4000042eb00044f7800310037000042eb0033
:103d0400144798002a0037001e4278008483fb0081
:103d14001e4290000482fb006322b9000403780071
:103d2400723ab9000402780084024300148020002f
:103d3400848242000042eb00844a78001e427800ec
:103d44008483fb001e4290000482fb006322b900be
:103d540004037800723ab900040278008402430034
:103d640004802000848242000042eb00844a7800f0
:103d74001e4278008483fb001e4290000482fb00f4
:103d84006322b90004037800723ab900040278008f
:103d94008402430024802000848242000042eb001d
:103da400844a78001e4290000442e80014479800b8
:103db4001e429000e54f5200d3ff36001e4fe8002c
:103dc4001e427800e74f5200ccff36000042eb0061
:103dd400244798000d00370013c0b30032c0b3006d
:103de4008040eb002e409000ccfc070013c0b300d1
:103df40012c0b30051c0b3002e409000c7fc0700ae
:103e04002e4290000442e800244798002e4290007d
:103e1400e74f5200f0ff36000042eb0024479800c1
:103e24000d00370013c0b3000041eb00ae4090001a
:103e34000040eb00b9fc070013c0b30022c0b3007c
:103e4400ae40900070c0b300b4fc07002e42900056
:103e54000442e800244798002e429000e54f5200a7
:103e6400f0ff36000f040700010707000002780086
:103e7400e00f5200040032000041eb0031c6b300f1
:103e840030c6b30095fc07000080fa00000006006d
:103e94000800fa000042eb00344798000042eb00af
:103ea400444798000042eb00544798001b0a07005f
:103eb40000102e000100200030f10700002d210029
:103ec4003101200098f1070090012000b408070098
:103ed4009101200000c5b30053ff0700100020002b
:103ee400b50807001100200090c4b3004eff07007e
:103ef4000000eb00b60807008000eb0040c4b300ec
:103f040049ff0700920a07003f0a0700140a070046
:103f1400370907008a05070063034700e5024700e5
:103f240064024700060178008500780004007800e8
:103f340061ff07000100370000000000bc06070015
:103f440000027800e20f520009003a0063034700c0
:103f5400e502470064024700060178008500780006
:103f64000400780054ff07000000eb00ba060700c5
:103f7400af06070000027800e10f5200f7003a0094
:103f84000489200014427800e44f5200a300320058
:103f94000489200014427800e34f520010003a00d4
:103fa4003e429000e04f520003003a001afd070021
:103fb40014c0b30034479800de4290004e42900093
:103fc400e70347006603470087017800060178008d
:103fd400854078000440780083fe07001d00370008
:103fe4004e4290008483fb005e4290000482fb00fa
:103ff4006322b90004037800723ab900040278001d
:1040040084024300248020008482420014c0b30050
:10401400844a7800de4290004e4290008540780049
:1040240004407800c0fe0700fbfc070014c0b30086
:1040340064479800de4290004e42900067034700b8
:10404400860178000041eb00854078000440780048
:10405400d8fd07008606070000027800e00f520032
:10406400120032004e4290008483fb005e429000b6
:104074000482fb006322b90004037800723ab90099
:104084000402780084024300148020000482420069
:1040940014437800de4290004e42900006417800be
:1040a40085407800044078000cfc07000489200057
:1040b4001442780034c0b2000482fb000402e90018
:1040c4004f22de0004427800ee4290000583fb009c
:1040d400fe4290008582fb0004417800860078004f
:1040e400050078007a040700de4090004e409000fe
:1040f400ee4390007e439000e502470064024700cf
:1041040081417800004178008740780006407800bb
:104114008cfc07004e4290008483fb005e429000ba
:104124000482fb006322b90004037800723ab900e8
:1041340004027800840243000480200004824200c8
:1041440014427800e04f520084003a0004892000b1
:1041540014427800e14f520029003a0034c0b30001
:10416400044f78001800370024c0b30014479800a7
:10417400110037000042eb00244798000800370084
:1041840013c0b3002e4190009e4090001e40780062
:1041940034fc07002e4290000442e80024479800b3
:1041a4002e429000e34f5200f5ff36001e4290006d
:1041b4000442e800144798001e429000e34f520066
:1041c400ecff36001e4fe8001e427800e44f520018
:1041d400e5ff36007e429000044078003dfe070073
:1041e40000437800de4290004e4290008041eb0094
:1041f40006417800854078000440780019fc0700e7
:1042040004892000144278000442e8000002fd0002
:1042140090e8b7000002fd005000370014060700c4
:1042240000027800e00f5200120032004e4290006b
:104234008483fb005e4290000482fb006322b90089
:1042440004037800723ab90004027800840243003f
:10425400148020000482420014437800de4290005f
:104264004e42900006417800854078000440780072
:104274009afb0700dc62a900dc82a9000042eb0083
:10428400244798000f003700dc62a8004006200095
:1042940099090700dc62a90040062000960907007e
:1042a400dc82a8004006200093090700dc82a900f4
:1042b40040062000900907002e4290000442e800c6
:1042c400244798002e429000e24f5200eeff360041
:1042d4000042eb00244798000b003700dc62a90081
:1042e400dc82a9004006200083090700dc62a800e4
:1042f400dc82a800400620007f0907002e429000bf
:104304000442e800244798002e429000e24f5200f5
:10431400f2ff3600e502470064024700850078009a
:104324000400780057fe070034c0b300040078008e
:1043340090e8b7000000eb00c7050700cc050700b4
:1043440000027800e00f5200040032000041eb004c
:1043540021c6b30020c6b30060fb0700b405070004
:1043640000027800e00f5200f3fe3a001000200033
:1043740061090700bb080700e30807000002780092
:10438400e10f520006003a00da0807000002780044
:10439400e00f520002003a0020002000ae050700a2
:1043a400cf080700e5fe37000200fa00000f78008e
:1043b4001e027800d44b88000080fa00000006003a
:1043c4000200fa00000f78001e027800644b880097
:1043d4000080fa00000006000200fa00000f7800d6
:1043e4001e027800e44b88000080fa0000000600fa
:1043f4000200fa00000f78001e027800744b880057
:104404000080fa00000006000000fa00e44b80007f
:10441400040078000080fa00000006000200fa00a0
:10442400000f78001e027800844b88000080fa0098
:10443400000006000000fa000040eb002b05070016
:1044440000427800040078006ae9b70010c0b300a5
:104454002605070000427800040078006be9b700e5
:10446400a496200014427800614262000482fb009a
:10447400610262004322dd00e616800075ff2f0012
:104484008502630005027200e4168800b4962000d9
:1044940014427800614262000482fb0061026200ff
:1044a4004422dd00e6168000f5fe2f00850263003d
:1044b40005027200e41688000080fa00000006007d
:1044c4000000fa00b496200014427800e04f520035
:1044d40009003200a496200014427800e04f5200f4
:1044e400050032000042eb000002fd0078e9b7004d
:1044f4000002fd0015003700a49620001442780045
:10450400e04f52000500320024c0b3000002fd0059
:1045140078e9b7000002fd000c003700b4962000d3
:1045240014427800e04f52000500320014c0b3007a
:104534000002fd0078e9b7000002fd000300370027
:1045440034c0b3000400780078e9b7000080fa00b2
:10455400000006000a00fa00889fbe000042eb003b
:10456400744798000042eb00544798000042eb0067
:104574006447980035098000140028000482420032
:1045840044079800f4ff2700340988004e02900085
:104594000402ea0044079800dd02a80050c0b300fa
:1045a40014040700dd02a900d642a80040c0b300ed
:1045b40010040700d642a900d662a80030c0b30098
:1045c4000c040700d662a900e2c2a80020c0b30010
:1045d40008040700e2c2a900d622a80010c0b30054
:1045e40004040700d622a90010c0b300b2040700d7
:1045f400000278008400780010c0b3001b04070098
:10460400d602a8000040eb00fa030700d602a90076
:104614000040eb00a8040700000278008400780042
:104624000040eb0011040700e44b8000e00f52004f
:104634002500320050c0b3009f0407000002780038
:104644008400780010c4b3007bef070040c0b300bf
:1046540099040700000278008400780020c4b300a5
:1046640075ef070030c0b300930407000002780020
:104674008400780030c4b3006fef070020c0b3009b
:104684008d040700000278008400780040c4b30061
:1046940069ef070010c0b300870407000002780028
:1046a4008400780050c4b30063ef07000040eb00bf
:1046b40081040700000278008400780060c4b3001d
:1046c4005def070080ef07000002eb00040f7800a5
:1046d400e901070000027800e00f5200e2003a000e
:1046e4004e00900075010700d30107000002780016
:1046f400e00f5200dc003200a4962000144278003f
:10470400e04f52000a0032000040eb002b04070087
:10471400000478000a03070000027800840f5400a4
:104724000c00360014c0b300544798000900370049
:104734000040eb0021040700000478001603070082
:1047440000027800840f54000200360014c0b30045
:1047540054479800b496200014427800e04f520069
:104764000a00320010c0b3001404070000047800eb
:10477400e802070000027800840f54000c003600a1
:1047840014c0b300644798000900370010c0b30098
:104794000a04070000047800f4020700000278000d
:1047a400840f54000200360014c0b300644798001c
:1047b400a5962000954278005e42900084cf520076
:1047c4002000320020c0b3004804070000427800f3
:1047d4008482fb005e4290000402fb00848f52003e
:1047e40018003a00a496200014427800e04f5200ca
:1047f40006003a005e429000e14f520003003a0086
:1048040014c0b30044479800020037000042eb0094
:10481400444798005e4090006ae9b7005e42900009
:10482400614262000482fb00610262004322dd00f7
:10483400e616800075ff2f008502630005027200f2
:10484400e4168800b5962000954278006e429000e8
:1048540084cf52002000320030c0b300230407008c
:10486400004278008482fb006e4290000402fb0048
:10487400848f520018003a00b49620001442780045
:10488400e04f520006003a006e429000e14f5200a1
:1048940003003a0014c0b3004447980002003700f4
:1048a4000042eb00444798006e4090006be9b7006b
:1048b4006e429000614262000482fb006102620069
:1048c4004422dd00e6168000f5fe2f008502630019
:1048d40005027200e41688008497200014427800d0
:1048e40074479800f6fe070084972000144278006d
:1048f400fe42900084cf5200020032004e409000ed
:104904004101070084972000144278000402fb0050
:10491400cfa2de003600200007002000860f5200e0
:10492400878f5a0050003e000460010003003700e6
:10493400330037001b0037004800370010c0b300b5
:104944009e030700000478000040eb009b0307006f
:104954000002780084025400644b80000482420008
:10496400040f78001e027800cfa2de000400be000f
:10497400a9f007000004be00390107000002be00d0
:104984000401be000800be00fbf007000002be00e8
:104994000400be0064f007000002be00040f7800ab
:1049a400310037009d020700000478000040eb004e
:1049b400820307000002780004025400040f780008
:1049c4001e027800cfa2de000400be0092f00700b1
:1049d4000004be00220107000002be000401be0064
:1049e4000800be00e4f007000002be000400be00a0
:1049f4004df007000002be00040f78001a003700d3
:104a040010c0b3006d0307000004780078020700ab
:104a14000002780004025400040f78001e0278009b
:104a2400cfa2de000400be007bf007000004be003d
:104a34000b0107000002be000401be000800be0016
:104a4400cdf007000002be000400be0036f00700ef
:104a54000002be00040f7800030037000002eb00e0
:104a6400040f780000000000f30007000002780043
:104a74009e02780005044200f4000700000278005a
:104a84000402440004007800d7050700ea00070088
:104a9400000278009e02780005045200eb00070033
:104aa40000027800040254008400780060c5b3005a
:104ab400cbee07004e009000d105070000027800fd
:104ac40014079800d44b8000e00f52000700320016
:104ad400ce00900060c5b30057ee07009e00900022
:104ae40030c4b30054ee070077ee07001e029000b6
:104af400e00f520003003400dc22a800dc42a900cd
:104b040005003700dc22a900dc42a8001e02900048
:104b14000402ea00140798009e029000843e2000dc
:104b2400848f520002003400843e2000b40e8800ba
:104b34009e029000844b8000848f52000300310059
:104b44000002eb00b40e8800020037001e02900041
:104b5400b40e88004f04be000080fa000000060076
:104b64000200fa00000f78001e02780084488800d2
:104b74000080fa00000006000200fa00000f78002e
:104b84001e027800944888000080fa0000000600a5
:104b94000200fa00000f78001e027800a448880082
:104ba4000080fa00000006000200fa00000f7800fe
:104bb4001e027800b44888000080fa000000060055
:104bc4000200fa00000f78001e027800c448880032
:104bd4000080fa00000006000200fa00000f7800ce
:104be4001e027800d44888000080fa000000060005
:104bf4000200fa00000f78001e027800e4488800e2
:104c04000080fa00000006000200fa00000f78009d
:104c14001e027800f44888000080fa0000000600b4
:104c24000200fa00000f78001e0278000449880090
:104c34000080fa00000006000200fa00889fbe000f
:104c4400000f78001e027800050020000400be005a
:104c5400f4ef07000004be00344980000500200082
:104c64000400be00efef07000002be000401be0016
:104c74000800be0066ef07000002be001449880069
:104c8400254988004f04be000080fa000000060099
:104c94000200fa00000f78001e02780034498800f0
:104ca4000080fa00000006000000fa00744880004a
:104cb400040078000080fa00000006000200fa00f8
:104cc400881f7800000f7800644980001e024200ab
:104cd40064498800644980008402780005f0a700d4
:104ce4008502ea007449800004f0a7000402ea0087
:104cf400848f52000b00350014002000b449880052
:104d040050c0b300ec02070000027800d4498800c8
:104d140040c0b300e802070000027800e4498800bc
:104d24001100370084498000e10f52000e003a0060
:104d340050c0b300e00207000004780040c0b30094
:104d4400dd02070000027800040244000404d100dc
:104d54009c01070000027800840f54000200360012
:104d640014002000b44988004f0478000080fa0041
:104d7400000006000600fa00881f7800100798005b
:104d8400210798001e009000ae00900087ef0700f6
:104d94000002be00040f78001e0278000500200007
:104da4000400be009fef07000002be000401be0025
:104db4001e009000ae009000b7ee07000002be0097
:104dc40018c0b3000200200003f023000400be005a
:104dd40053ef070000027800e00f520001003d008d
:104de4000044eb00e04f5400020032001e02e800d1
:104df400010037001e027800040078004f04780098
:104e04000080fa00000006000200fa00004f78005b
:104e14001e427800e04f520003003a00944880009c
:104e24006449880002003700a4488000644988006f
:104e34000080fa00000006000000fa0044498000e7
:104e4400040078000080fa00000006000000fa0068
:104e540054498000040078000080fa000000060035
:104e64000000fa0094498000a54980000400be00b7
:104e74000080fa00000006000000fa00b449800037
:104e8400040078000080fa00000006000200fa0026
:104e9400000f78001e027800744888000080fa0031
:104ea400000006000000fa000002eb0084498800bc
:104eb4000002eb00444988000002eb0054498800da
:104ec4000002eb00644988000002eb00744988008a
:104ed4000002eb00b44988006022b80094498800bd
:104ee400a54988000080fa00000006000600fa00c8
:104ef4001007980021079800eaff0700140020001b
:104f04008449880084488000744988002e029000f7
:104f14004449880014498000254980009449880048
:104f2400a54988000002eb00040f7800090037004f
:104f340000000000b4498000e00f5200fdff320081
:104f44000002eb00644988000002eb00b4498800c9
:104f54001e0fe8009e0278001e029000848f52000b
:104f6400f3ff3900cfff07000080fa0000000600bd
:104f74000400fa00881f7800000f78002147980089
:104f84002e429000e04f520005003200f4488000a9
:104f9400840078001e007800d4ff07000400370066
:104fa400d4488000840078001e007800cfff0700fa
:104fb40050c0b3004d02070000427800e04f520099
:104fc40014003200d5498000e44980000482420084
:104fd4000404d100fb00070000027800840f540091
:104fe4000c0031002e429000e04f520005003200c8
:104ff400f44880008400780010002000bbff070004
:1050040004003700d4488000840078001000200099
:10501400b6ff07004f0478000080fa000000060085
:105024000200fa00000f78001e027800e10f52001f
:1050340002003a00340020000b0037001e02780002
:10504400e30f520002003a0014002000060037006b
:105054001e027800e00f520002003a0024002000f3
:10506400010037000002eb00040078000080fa0021
:10507400000006000600fa001007980021079800b7
:105084001e029000050020003600200007002000ca
:10509400860f5200878f5a0029003e0004600100e9
:1050a4000c003700020037001c00370012003700e4
:1050b4002e029000e10f520003003a002400200069
:1050c400040f78001e0037000002eb00040f780084
:1050d4001b0037002e029000e10f520003003a003b
:1050e40014002000040f780015003700340020005d
:1050f400040f7800120037002e029000e10f5200d6
:1051040003003a000002eb00040f78000c003700a3
:1051140024002000040f7800090037002e029000bc
:10512400e10f520003003a0034002000040f78001d
:105134000300370014002000040f78000000000072
:105144001e027800040078000080fa0000000600c7
:105154000600fa00100798002107980014002000a8
:10516400040f78001e029000e10f520003003a0081
:105174002e029000e00f5200120032001e02900036
:10518400e00f520003003a002e029000e30f520099
:105194000c0032001e029000e30f520003003a009c
:1051a4002e029000e20f5200060032001e02900010
:1051b400e20f520005003a002e029000e10f520067
:1051c40002003a000002eb00040f78001e0278008f
:1051d400040078000080fa00000006000600fa00cf
:1051e400200798000042eb00044f78002dff0700d1
:1051f4002300370014c0b300044f780024002000bb
:105204008449880074488000ae009000040078004f
:10521400cfff070000027800140798001e029000d8
:10522400e10f520005003a00c44880007449880028
:10523400e44880005449880007003700c4488000cf
:105244000402ea0074498800e44880000402ea0089
:105254005449880000000000b4498000e00f520067
:10526400fdff32000fff0700744880009e0090008d
:10527400040078007fff070000027800744888006b
:1052840074488000840278002e029000848f5200bb
:10529400d8ff3a001e427800e04f52000a00320064
:1052a400d622a80010c0b300d2000700d622a9005d
:1052b400d602a8000040eb00ce000700d602a900e9
:1052c4005cfc07007efc07000080fa00000006007a
:1052d4000600fa00000f7800110798004247980072
:1052e4001e007800bdff0700ce4090001e00900015
:1052f4001fff07000080fa00000006000200fa0009
:10530400000f78001e027800244a88000080fa000a
:10531400000006000000fa00244a8000040078001f
:105324000080fa00000006000200fa00000f780076
:105334001e027800344a88000080fa00000006004b
:105344000000fa00344a8000040078000080fa006b
:10535400000006000200fa00000f78001e02780028
:10536400444a88000080fa00000006000000fa00a9
:10537400444a8000040078000080fa00000006001f
:105384000200fa00000f78001e027800544a8800d8
:105394000080fa00000006000000fa00544a800071
:1053a400040078000080fa00000006000200fa0001
:1053b400000f78001e027800f44988000080fa008b
:1053c400000006000000fa00f449800004007800a0
:1053d4000080fa00000006000200fa00000f7800c6
:1053e4001e027800044a88000080fa0000000600cb
:1053f4000000fa00044a8000040078000080fa00eb
:10540400000006000200fa00000f78001e02780077
:10541400144a88000080fa00000006000000fa0028
:10542400144a8000040078000080fa00000006009e
:105434000200fa00000f78001e027800644588001c
:105444001e027800944588000080fa0000000600df
:105454000000fa0064458000040078000080fa002f
:10546400000006000200fa00000f78001e02780017
:10547400044588000080fa00000006000000fa00dd
:1054840004458000040078000080fa000000060053
:105494000200fa00000f78001e02780034458800ec
:1054a4000080fa00000006000000fa003445800085
:1054b400040078000080fa00000006000200fa00f0
:1054c400000f78001e027800a44488000080fa00cf
:1054d400000006000000fa00a444800004007800e4
:1054e4000080fa00000006000200fa00000f7800b5
:1054f4001e027800d44488000080fa0000000600f0
:105504000000fa00d4448000040078000080fa000f
:10551400000006000200fa00000f78001e02780066
:10552400644a88000080fa00000006000000fa00c7
:10553400644a8000040078000080fa00000006003d
:105544000000fa0024002000544588000002eb000b
:1055540074458800840c20006445880004102000f1
:10556400844588000002eb00a4458800840c2000d8
:105574009445880044002000f44488000002eb00b5
:1055840014458800440620000445880004082000cf
:10559400244588000002eb004445880024032000d1
:1055a4003445880084002000944488000002eb0005
:1055b400b444880064092000a44488000042eb003d
:1055c40004007800b6e8b70004042000c44488004e
:1055d4000002eb00e4448800840c2000d4448800da
:1055e4000042eb0004007800cce8b7000080fa0029
:1055f400000006000200fa00004f7800a1e2a900b2
:105604009e4278000582fb006622b900840278007d
:105614002489200004824200140278005415880072
:10562400a1e2a80066030700a042a8000000000051
:105634006903070000427800e04f5200fcff32008b
:10564400a042a9009e4278000582fb000614800057
:105654006622b90084027800648920000482420032
:10566400060a78000080fa00000006000600fa002e
:1056740020479800210798002e4290000482fb00e6
:105684007622b90084027800648b200004824200f0
:10569400144278008482fb00644a8000848f5200a4
:1056a4000d0031002e4290008483fb00763ab9004d
:1056b40084027800648b2000048242001442780043
:1056c4000443e800763ab90084027800648b200031
:1056d40004824200064a78002e4290000482fb00b5
:1056e4007622b90084027800648b20000482420090
:1056f40014427800044fe9001a0037002e4290004b
:105704000480fb001e4278008483fb002e4290003c
:105714000482fb001e4378008682fb000503e90037
:105724006b22b90004027800060242000402e80079
:1057340084024200648b2000048242001403780037
:105744006b02b90004027800070242000402e80078
:1057540084024200648b200004824200060a78001e
:105764001e4fe9001e427800e04f5200e3ff3a006a
:105774002e4290000482fb007622b9008402780055
:10578400848b200004824200ae029000050a780057
:105794000080fa00000006000000fa000042eb005e
:1057a40004007800cce8b7000042eb000400780065
:1057b400b6e8b7000080fa00000006000600fa0010
:1057c400404798000002eb00140798000042eb00e9
:1057d400044f7800100037004e4290000482fb0012
:1057e4001e4078000083fb006b22b900040278009d
:1057f400060242000402e80084024200648b200096
:1058040004824200140278009e0290000482420046
:10581400140798001e4fe8004e4290000482fb00db
:105824007622b90084027800648b2000048242004e
:10583400144278009e4f5200e7ff3e004e42900013
:105844000482fb007622b90084027800648b200075
:1058540004824200144278000482fb009e029000fd
:10586400110009008482d80000027800140798000f
:105874001e029000040078000080fa000000060078
:105884000200fa00004f7800000000009e427800f9
:105894000582fb007622b90084027800648b200024
:1058a4000482420014427800e04f5200f7ff3200b5
:1058b4000080fa00000006000200fa00004f7800a1
:1058c4009e4278000582fb006622b900040278003b
:1058d400e402420024892000048242001402780079
:1058e400040078000080fa00000006000200fa00bc
:1058f400881f7800004f78001e427800e54f520060
:10590400030032001e427800e44f52000e003a00b9
:1059140050c0b300e8ff07000004780040c0b300a3
:10592400e5ff070000027800040244000403d100ec
:105934006545800014c0b300850f530011003e007c
:105944000042eb000f0037001e407800daff07002a
:10595400000378009e4278000582fb006622b900ad
:10596400040278008482e800248920000482420032
:105974009402780014c0b300850f530001003e0068
:105984000042eb00044078004f0478000080fa00e5
:10599400000006000200fa00881f7800004f78001b
:1059a400c1fc0700000278001e4378008682fb00d9
:1059b400850f520004003a0050c0b300cbff07002b
:1059c40000427800110037001e4278000484fb0076
:1059d400b5fc070000027800880078000400780015
:1059e400dbfd070000027800e10f520004003a00da
:1059f4000040eb00bdff07000042780003003700c1
:105a040010c0b300b9ff07000042780004407800da
:105a14004f0478000080fa00000006000000fa003d
:105a2400b44a8000040078000080fa0000000600f8
:105a34000000fa00c44a8000040078000080fa00e4
:105a4400000006000000fa00a44a80000400780068
:105a54000080fa00000006000200fa00000f78003f
:105a64001e027800c44a88000080fa000000060084
:105a74000000fa00d44a8000040078000080fa0094
:105a8400000006000000fa00944a80000400780038
:105a94000080fa00000006000000fa00744a80004a
:105aa400040078000080fa00000006000000fa00fc
:105ab400844a8000040078000080fa000000060098
